:100000000C942A000C9449000C9447000C9447006F
:100010000C9447000C9447000C9447000C94470044
:100020000C9447000C9447000C9447000C94470034
:100030000C9447000C9447000C9447000C94470024
:100040000C9447000C9447000C9447000C94470014
:100050000C94470011241FBECFE5D8E0DEBFCDBF12
:1000600010E0A0E6B0E0EAE6FBE002C005900D92E9
:10007000A23AB107D9F720E0A2EAB0E001C01D9290
:10008000A83AB207E1F70E94A6020C94B3050C94BB
:1000900000001F920F920FB60F9211242F933F93DF
:1000A0004F935F936F937F938F939F93AF93BF9380
:1000B000EF93FF93CF93DF93CDB7DEB72797DEBFE4
:1000C000CDBFCE0101960E94480160E080E00E9411
:1000D0007D028F811F928F938E811F928F938C81CF
:1000E0001F928F9385E790E09F938F930E94D50294
:1000F00061E080E00E947D028B811F928F938A8154
:100100001F928F9389811F928F938CE890E09F9329
:100110008F930E94D5020FB6F894DEBF0FBECDBFFD
:1001200027960FB6F894DEBF0FBECDBFDF91CF91FB
:10013000FF91EF91BF91AF919F918F917F916F91BF
:100140005F914F913F912F910F900FBE0F901F9095
:1001500018958CE080B981B18C7F81B9089584EACB
:1001600086BF06B607FEFDCF81B1887F089584E97A
:1001700086BF06B604FCFDCF089583B984E886BF28
:1001800006B607FEFDCF81B1887F089520E4629F07
:10019000B0011124646866BF06B607FEFDCF23B127
:1001A000FC01208381B1887F08950E94AF0082EA1C
:1001B0000E94BD008DE00E94BD0083E80E94BD004A
:1001C0000C94B7000F931F93CF938C010E94AF0044
:1001D00082EA0E94BD0082E00E94BD00F801828197
:1001E000CAE06C2F0E94C902F0E18F9F900D11248C
:1001F000892F0E94BD00F80181816C2F0E94C902E5
:10020000F0E18F9F900D1124892F0E94BD00F8010D
:1002100080816C2F0E94C902F0E18F9F900D112404
:10022000892F0E94BD00F80183816C2F0E94C902B2
:10023000F0E18F9F900D1124892F0E94BD00F801DD
:1002400084816C2F0E94C902F0E18F9F900D1124D0
:10025000892F0E94BD00F80185816C2F0E94C90280
:10026000F0E18F9F900D1124892F0E94BD00F801AD
:1002700086816C2F0E94C902F0E18F9F900D11249E
:10028000892F0E94BD00CF911F910F910C94B70050
:100290000F931F93CF93DF931F92CDB7DEB78C01DF
:1002A0000E94AF0082EA0E94BD0082E00E94BD0071
:1002B0000E94AF0083EA0E94BD0061E0CE0101967A
:1002C0000E94C6008981982F9695969596959E7066
:1002D000292F220F220F920F8F70890FF80182832E
:1002E00061E0CE0101960E94C6008981982F969503
:1002F000969596959E70292F220F220F920F8F7040
:10030000890FF801818361E0CE0101960E94C60049
:100310008981982F9695969596959670292F220FFC
:10032000220F920F8F70890FF801808361E0CE0158
:1003300001960E94C6008981982F9695969596956C
:100340009670292F220F220F920F8F70890FF801BC
:10035000838361E0CE0101960E94C6008981877087
:10036000F801848361E0CE0101960E94C600898174
:10037000982F9695969596959270292F220F220F79
:10038000920F8F70890FF801858361E0CE0101968D
:100390000E94C6008981982F92959F708F70FAE015
:1003A0009F9F800D1124F80186830E94B7000F9053
:1003B000DF91CF911F910F910895DA98DB9A9BB34B
:1003C0009F70282F207F922B9BBB35E03A95F1F749
:1003D0000000DB98EFE8F1E03197F1F700C0000092
:1003E000DB9A2BB32F70F0E18F9FC0011124822B79
:1003F0008BBB35E03A95F1F70000DB988FE891E090
:100400000197F1F700C00000089581E00E94DD012E
:100410008FE39FE10197F1F700C0000008958FEF8F
:100420008ABB1BBA2FEF80E792E0215080409040BA
:10043000E1F700C0000080E690E09093A500809373
:10044000A400DA9893E0DB9A8BB38F7080638BBB48
:10045000E5E0EA95F1F70000DB98EFE1FEE4319783
:10046000F1F700C00000915071F7DB9A8BB38F70E9
:1004700080628BBBF5E0FA95F1F70000DB988FE81E
:1004800091E00197F1F700C0000088E20E94DD01D1
:100490008CE00E94DD0186E00E94DD010C940502E3
:1004A000DA9ADB9A9BB39F70282F207F922B9BBBFD
:1004B00035E03A95F1F70000DB98EFE8F1E031978D
:1004C000F1F700C00000DB9A2BB32F70F0E18F9F93
:1004D000C0011124822B8BBB35E03A95F1F7000067
:1004E000DB988FE891E00197F1F700C000000895D4
:1004F0000E94500280E090E0089590E4699F800D92
:10050000112480680C94DD010F931F93CF93DF9328
:100510008A010E947D02E8018991882319F00E94D6
:100520005002FACFDF91CF911F910F910895CF9391
:10053000DF93FC018491EF012196882321F00E9432
:100540005002FE01F7CFDF91CF910895CF93DF9353
:10055000CDB7DEB727970FB6F894DEBF0FBECDBF7D
:100560000E940F0287E0EEE6F0E0DE0111960190B6
:100570000D928A95E1F70E94A900CE0101960E9492
:10058000E20085B7826085BF8BB780648BBF7894AB
:10059000FFCF991B79E004C0991F961708F0961BAE
:1005A000881F7A95C9F780950895A0E0B0E0EBED3B
:1005B000F2E00C948C05AE014B5F5F4FFA01619144
:1005C0007191AF018091A4009091A5000E94EB026F
:1005D000E2E00C94A805ABE0B0E0E1EFF2E00C94AF
:1005E0007C056C017B018A01FC01178216828381E4
:1005F00081FFCCC1CE0101963C01F6019381F70148
:1006000093FD859193FF81917F01882309F4BAC1FD
:10061000853239F493FD859193FF81917F01853275
:1006200029F4B60190E00E94E204E7CF912C212C3E
:10063000312CFFE1F315D8F08B3279F038F48032A9
:1006400079F08332A1F4232D20611DC08D3261F039
:10065000803369F4232D216016C0832D8260382EEB
:10066000E32DE4603E2E2AC0F32DF8601DC037FC58
:100670002DC020ED280F2A3040F08E32B9F436FC20
:1006800081C1232D2064322E19C036FE06C08AE0B7
:10069000989E200D1124922E11C0EAE02E9E200D6E
:1006A0001124222EF32DF0623F2E08C08C3621F447
:1006B000832D8068382E02C0883641F4F70193FDFF
:1006C000859193FF81917F018111B3CF982F9F7DF9
:1006D0009554933028F40C5F1F4F9FE399830DC00E
:1006E000833631F0833771F0833509F059C021C06A
:1006F000F801808189830E5F1F4F88248394912C99
:10070000530113C02801F2E04F0E511CF801A080E4
:10071000B18036FE03C0692D70E002C06FEF7FEF3D
:10072000C5010E94D7044C018201F32DFF773F2EB3
:1007300016C0280122E0420E511CF801A080B180B1
:1007400036FE03C0692D70E002C06FEF7FEFC50178
:100750000E94CC044C01F32DF0683F2E820133FC43
:100760001BC0822D90E088169906B0F4B60180E295
:1007700090E00E94E2042A94F4CFF50137FC8591C1
:1007800037FE81915F01B60190E00E94E2042110E2
:100790002A9421E0821A91088114910471F7E8C02B
:1007A000843611F0893641F5F80137FE07C06081C3
:1007B0007181828193810C5F1F4F08C060817181BC
:1007C000072E000C880B990B0E5F1F4FF32DFF7641
:1007D0003F2E97FF09C090958095709561957F4F4A
:1007E0008F4F9F4FF0683F2E2AE030E0A3010E9418
:1007F0001E05882E861845C0853731F4232D2F7E9F
:10080000B22E2AE030E025C0932D997FB92E8F3685
:10081000C1F018F4883579F0B5C0803719F0883701
:1008200021F0B0C0E92FE061BE2EB4FE0DC0FB2D5B
:10083000F460BF2E09C034FE0AC0292F2660B22EF4
:1008400006C028E030E005C020E130E002C020E131
:1008500032E0F801B7FE07C0608171818281938127
:100860000C5F1F4F06C06081718180E090E00E5FD9
:100870001F4FA3010E941E05882E8618FB2DFF77AF
:100880003F2E36FE0DC0232D2E7FA22E891458F444
:1008900034FE0BC032FC09C0832D8E7EA82E05C00D
:1008A000B82CA32C03C0B82C01C0B92CA4FE0FC0D7
:1008B000FE01E80DF11D8081803321F49A2D997E8F
:1008C000A92E09C0A2FE06C0B394B39404C08A2D19
:1008D000867809F0B394A3FC11C0A0FE06C0B21440
:1008E00088F4280C922C9B180EC0B21460F4B60148
:1008F00080E290E00E94E204B394F7CFB21418F4BF
:100900002B1802C0982C212CA4FE10C0B60180E345
:1009100090E00E94E204A2FE17C0A1FC03C088E799
:1009200090E002C088E590E0B6010CC08A2D867880
:1009300059F0A1FE02C08BE201C080E2A7FC8DE26B
:10094000B60190E00E94E204891438F4B60180E315
:1009500090E00E94E2049A94F7CF8A94F301E80DA4
:10096000F11D8081B60190E00E94E2048110F5CF74
:10097000222009F442CEB60180E290E00E94E20417
:100980002A94F6CFF6018681978102C08FEF9FEF00
:100990002B96E2E10C949805FC01059061507040A3
:1009A0000110D8F7809590958E0F9F1F0895FC0138
:1009B0006150704001900110D8F7809590958E0F8E
:1009C0009F1F08950F931F93CF93DF93FB01238104
:1009D00021FD03C08FEF9FEF2CC022FF16C0468180
:1009E0005781248135814217530744F4A081B18196
:1009F0009D012F5F3F4F318320838C932681378168
:100A00002F5F3F4F3783268314C08B01EC01FB011E
:100A10000084F185E02D0995892BE1F6D801169621
:100A20008D919C911797019617969C938E9316978C
:100A3000CE01DF91CF911F910F910895FA01AA275E
:100A4000283051F1203181F1E8946F936E7F6E5F11
:100A50007F4F8F4F9F4FAF4FB1E03ED0B4E03CD0BF
:100A6000670F781F891F9A1FA11D680F791F8A1FA2
:100A7000911DA11D6A0F711D811D911DA11D20D009
:100A800009F468943F912AE0269F11243019305DC3
:100A90003193DEF6CF010895462F4770405D4193B4
:100AA000B3E00FD0C9F7F6CF462F4F70405D4A3301
:100AB00018F0495D31FD4052419302D0A9F7EACFC9
:100AC000B4E0A6959795879577956795BA95C9F7F8
:100AD00000976105710508959B01AC010A2E0694EB
:100AE0005795479537952795BA95C9F7620F731FA4
:100AF000841F951FA01D08952F923F924F925F92E1
:100B00006F927F928F929F92AF92BF92CF92DF921D
:100B1000EF92FF920F931F93CF93DF93CDB7DEB782
:100B2000CA1BDB0B0FB6F894DEBF0FBECDBF099416
:100B30002A88398848885F846E847D848C849B846D
:100B4000AA84B984C884DF80EE80FD800C811B817B
:100B5000AA81B981CE0FD11D0FB6F894DEBF0FBEAA
:0A0B6000CDBFED010895F894FFCF1A
:100B6A0000000002000000007802000000000D23CF
:100B7A000012020417446174653A20253032642F4A
:100B8A00253032642F3230253032640054696D6565
:100B9A003A20253032643A253032643A25303264BC
:020BAA00000049
:00000001FF
