:100000000C94BA000C94D7000C94D7000C94D70031
:100010000C94B41F0C94D7000C94D7000C94F900E6
:100020000C94D7000C94D7000C94D7000C94D700F4
:100030000C94D7000C9400030C943C030C94D70050
:100040000C94D7000C94D7000C94D7000C94D700D4
:100050000C94D7006C1E6F1E8B1FD01E8B1F8B1F26
:100060008B1F8B1F8B1F8B1F4C1F511F561F611F18
:10007000771F6E616E00696E660000407A10F35A59
:1000800000A0724E18090010A5D4E80000E87648D8
:10009000170000E40B54020000CA9A3B000000E184
:1000A000F505000080969800000040420F00000017
:1000B000A08601000000102700000000E8030000F7
:1000C00000006400000000000A00000000000100C1
:1000D000000000002C76D888DC674F0823DFC1DFE2
:1000E000AE59E1B1B796E5E3E453C63AE6519976E5
:1000F00096E8E6C28426EB898C9B62ED407C6FFC1F
:10010000EFBC9C9F40F2BAA56FA5F490055A2AF760
:100110005C936B6CF9676DC11BFCE0E40D47FEF569
:1001200020E6B500D0ED902E0300943577050080D1
:10013000841E080000204E0A000000C80C33333330
:10014000330F986E12831141EF8D2114893BE655D0
:1001500016CFFEE6DB18D1844B381BF77C1D901DB3
:10016000A4BBE424203284725E228100C9F124EC15
:10017000A1E53D2711241FBECFE5D8E0DEBFCDBFEE
:1001800011E0A0E6B0E0E2EEFEE402C005900D92C0
:10019000AA3DB107D9F725E0AAEDB1E001C01D9253
:1001A000A633B207E1F70E94D81F0C946F270C9476
:1001B0000000EC010E94D80160E080E00E94500243
:1001C00089E091E09F938F930E94D92661E080E0BF
:1001D0000E945002DF93CF938FE091E09F938F9323
:1001E0000E94D9260F900F900F900F900F900F90B4
:1001F000FFCF1F920F920FB60F9211240F931F93F0
:100200002F933F934F935F936F937F938F939F931E
:10021000AF93BF93EF93FF93CF93DF9300D0CDB70E
:10022000DEB70E94C702B39BFECF0E94D802BC017A
:10023000990F880B990B0E94362420E030E040E8AB
:100240005DE30E94712460931604709317048093F9
:1002500018049093190460E080E00E94500280919D
:10026000160490911704A0911804B0911904BF933B
:10027000AF939F938F9382E191E09F938F930E941E
:10028000D9268091DA019091DB01A091DC01B09137
:10029000DD010196A11DB11D8093DA019093DB0170
:1002A000A093DC01B093DD01409116045091170436
:1002B00060911804709119047F936F935F934F932B
:1002C000BF93AF939F938F938DE191E09F938F9313
:1002D0000AE114E01F930F930E94EF26F8010190AA
:1002E0000020E9F731978F010A5114409E012F5FDA
:1002F0003F4FA8016AE174E08BE694E00E94F81297
:1003000080936A040FB6F894DEBF0FBECDBF88237A
:1003100019F08CE291E007C089819A8108171907CA
:1003200021F08FE391E00E94D9008BE694E00E94D7
:10033000A3140F900F90DF91CF91FF91EF91BF9198
:10034000AF919F918F917F916F915F914F913F916D
:100350002F911F910F910F900FBE0F901F90189526
:10036000DA98DB9A9BB39F70282F207F922B9BBB40
:1003700035E03A95F1F70000DB98EFE8F1E03197CE
:10038000F1F700C00000DB9A2BB32F70F0E18F9FD4
:10039000C0011124822B8BBB35E03A95F1F70000A8
:1003A000DB988FE891E00197F1F700C00000089515
:1003B00081E00E94B0018FE19EE40197F1F700C057
:1003C000000008958FEF8ABB1BBA2FEF80E792E001
:1003D000215080409040E1F700C000008AE690E0A4
:1003E0009093330580933205DA9893E0DB9A8BB3D0
:1003F0008F7080638BBBE5E0EA95F1F70000DB9836
:10040000EFE1FEE43197F1F700C00000915071F781
:10041000DB9A8BB38F7080628BBBF5E0FA95F1F7B6
:100420000000DB988FE891E00197F1F700C0000031
:1004300088E20E94B0018CE00E94B00186E00E9438
:10044000B0010C94D801DA9ADB9A9BB39F70282FE5
:10045000207F922B9BBB35E03A95F1F70000DB98AB
:10046000EFE8F1E03197F1F700C00000DB9A2BB321
:100470002F70F0E18F9FC0011124822B8BBB35E0E0
:100480003A95F1F70000DB988FE891E00197F1F7DA
:1004900000C0000008950E94230280E090E00895CB
:1004A00090E4699F800D112480680C94B0010F9333
:1004B0001F93CF93DF938A010E945002E801899134
:1004C000882319F00E942302FACFDF91CF911F9168
:1004D0000F910895CF93DF93FC018491EF01219652
:1004E000882321F00E942302FE01F7CFDF91CF91F4
:1004F0000895BB9A8FE797E00197F1F700C00000DD
:10050000BB98E7E1F1E03197F1F700C0000086B356
:10051000E7E6F6E03197F1F700C000008870089533
:1005200098E0BB9A80FF0AC020E22A95F1F7BB98B9
:10053000EFEFF0E03197F1F700C00AC0EFEEF0E026
:100540003197F1F700C00000BB98F5E3FA95F1F799
:1005500000008695915029F7089598E080E08695EF
:10056000BB9A20E22A95F1F7BB98E0E3EA95F1F710
:10057000B3998068EBEDF0E03197F1F700C000002F
:10058000915069F708950E9479020C947902CF93F3
:100590000E947902C82F811107C08CEC0E94900242
:1005A00084E40E94900201C0C1E08C2FCF91089595
:1005B000CF93DF930E9479028CEC0E9490028EEB25
:1005C0000E9490020E94AD02C82FD0E00E94AD02AE
:1005D0009E01382BC901DF91CF910895CF93C82F89
:1005E0008091DE018111FCCFCA3019F48DE00E94A8
:1005F000EE025D9BFECFCCB980E090E0CF910895F4
:100600001F920F920FB60F9211248F939F93EF9327
:10061000FF938CB190912F059F3410F010922F050D
:100620009091DF0191111FC08D3011F08A3081F45B
:1006300080912F058823B9F0E0912F05F0E0E35277
:10064000FB4F108210922F0581E08093DF010BC0D9
:10065000E0912F05F0E0E352FB4F808380912F055E
:100660008F5F80932F05FF91EF919F918F910F9056
:100670000FBE0F901F9018951F920F920FB60F92FA
:1006800011248F939F93EF93FF93E0912D05F091A9
:100690002E058081882349F0CF01019690932E0585
:1006A00080932D0580818CB903C055981092DE018E
:1006B000FF91EF919F918F910F900FBE0F901F9020
:1006C000189510BC19B888E98AB986E880BD0895E4
:1006D0002091DE012111FCCF21E02093DE019093D7
:1006E0002E0580932D05559A0895811103C08BEA3C
:1006F00091E002C082EB91E00C9468039F938F938A
:100700007F936F938CEB91E09F938F938DE894E0B0
:100710009F938F930E94EF268DB79EB708960FB6D2
:10072000F8949EBF0FBE8DBF8DE894E00C946803D3
:1007300080E5EDEDF4E0DF011D928A95E9F7109276
:100740002F051092DF010895FC0162817381CB01B6
:10075000A0E0B0E0BA2FA92F982F88272181822B03
:10076000BA2FA92F982F88272081BC01CD01622B99
:1007700008950F931F93FC019A01AB012250310998
:100780004109510983899489A589B6890297A109EC
:10079000B109281739074A075B0768F4A185B285B4
:1007A0000E94572507A110A521A532A5600F711F32
:1007B000821F931F03C060E070E0CB011F910F9177
:1007C0000895CF93DF93DC01ED91FC911197309761
:1007D000D1F09F012F5F3F4FE9012197888181323E
:1007E00078F08A33B9F7908180ED890F8A3058F418
:1007F00032962E173F0739F4903329F42D933C930A
:1008000080E090E002C08FEF9FEFDF91CF910895DD
:100810000F931F93CF93DF93EC018B01892BF1F0A2
:10082000E881F9813097D1F080818823B9F02A815D
:100830003B81858196812817390781F481810E9447
:10084000891D80FD0BC02881398180E0F80131834A
:100850002083DF91CF911F910F91089589E020E0CF
:1008600030E0F4CFFB01480F591F2191DC012D939B
:10087000CD01A417B507C9F70895FB01428D538D2B
:1008800060E070E0833059F484899589A0E0B0E09D
:10089000DC0199278827482B592B6A2B7B2BCB010E
:1008A000BA010895FB01228F338FDC018C918330D4
:1008B00029F4CA01AA27BB27848B958B08950F932F
:1008C0001F93CF93DF93FC01EB0120E030E040E089
:1008D00050E08EE2BA016F5F7F4FA28DB38DA40FFF
:1008E000B51F9C919032A1F0953009F495EE6930D6
:1008F000710539F4DE01A20FB31F19968C932F5F97
:100900003F4FDE01A20FB31F19969C932F5F3F4FFD
:10091000AB016B307105F1F6DE01A20FB31F199622
:100920001C92A28DB38D1B968C918887028D138D9E
:10093000C8014C960E94A403688379838A839B83B1
:10094000F801868997899F838E83808D918D9D8301
:100950008C83DF91CF911F910F9108958F929F9279
:10096000AF92BF92EF92FF920F931F93CF93DF93BB
:10097000FC0123812223C1F1EC017C01FFE2EF0E97
:10098000F11C2BA53CA54DA55EA501E010E0B7012B
:1009900089810E94DB1D811129C01B820BA51CA52A
:1009A0002DA53EA58F89988DA98DBA8D8F8C98A085
:1009B000A9A0BAA0B901A801481959096A097B0977
:1009C000481759076A077B0778F46A81623061F437
:1009D000A9019801280F391F4A1F5B1F01E010E091
:1009E000B70189810E94DB1D80E001C081E0DF91B9
:1009F000CF911F910F91FF90EF90BF90AF909F907C
:100A00008F9008958F929F92AF92BF92FF920F9313
:100A10001F93CF93DF93EC014A015B010E94AE0468
:100A2000F82E811116C001E010E0A5019401BE016D
:100A3000615D7F4F89810E94901D882331F0FF24E2
:100A4000F39488248A94982C54018BA69CA6ADA676
:100A5000BEA68F2DDF91CF911F910F91FF90BF9078
:100A6000AF909F908F9008950F931F93FC0103A563
:100A700014A525A536A5041715072607370721F065
:100A80001F910F910C94020580E01F910F91089522
:100A9000CF93DF93FC01DC01A35DBD4F4D915C91D1
:100AA00087A58B3E21F0885E823008F040C0453536
:100AB0006AEA5607A9F4DF01AF57BF4FC1ECD1E096
:100AC0009F0127573F4F8D91699190E0861B9109B7
:100AD000A217B30719F0892BB1F302C0892B69F172
:100AE00022AD33ADC9010197822393230097F9F416
:100AF00021153240E1F424AD2223C9F030E0B901E0
:100B00006150710926233723232B89F427AD215007
:100B1000223068F4DF01A05CBF4F2D913C91232B64
:100B200031F0EB5BFF4F20813181232B59F44535A8
:100B30005A4A31F083E090E005C080E090E002C0C6
:100B400082E090E0DF91CF910895AF92BF92CF9273
:100B5000DF92EF92FF920F931F93CF93DF93423078
:100B600051056105710508F4A1C0FC0103891489D0
:100B700025893689401751076207730708F096C028
:100B80006A017B018C018081823009F44DC0833081
:100B900009F469C0813009F089C0EA01D695C7958A
:100BA000CC0DDD1DCE01892F99278695478D50A14B
:100BB00061A172A1480F591F611D711DCF010E94D3
:100BC0003405882321F06FEF7FEFCB0173C05E0106
:100BD000FFEFAF1ABF0AD170C00FD11FCFA5C5015B
:100BE000892F99278695F801478D50A161A172A19F
:100BF000480F591F611D711DC8010E9434058111E4
:100C0000E2CFF1E0BF22F801EA0DFB1D87A56C2FB2
:100C100070E0782BC0FE06C054E0769567955A9533
:100C2000E1F71EC07F701CC077276F2D5E2D4D2D04
:100C3000878D90A1A1A1B2A1480F591F6A1F7B1FE8
:100C4000CF010E9434058111BECFCC0CDD1CE8948D
:100C5000C0F8F1E0DF22F801EC0DFD1D67A570A9D9
:100C600080E090E027C0878D90A1A1A1B2A127E0EC
:100C700076956795579547952A95D1F7480F591F4F
:100C80006A1F7B1FCF010E94340581119CCF015D3B
:100C90001F4FCC0CDD1CCC0CDD1CC6018C7F917071
:100CA000800F911F0E94A4039F7004C061E070E058
:100CB00080E090E0DF91CF911F910F91FF90EF9036
:100CC000DF90CF90BF90AF900895CF92DF92EF92D8
:100CD000FF920F931F93CF93DF938C01FC01C08190
:100CE000D18116861786108A118AC680D780E08443
:100CF000F184C114D104E104F104E9F48881833062
:100D000040F08BA19CA1ADA1BEA10097A105B105AA
:100D100081F48F819885892B11F482E04CC08BA1DE
:100D20009CA1ADA1BEA1F801868B978BA08FB18F3E
:100D30002EC06C017D0189859A85892BF1F4B7015C
:100D4000A601F801808191810E94A5056B017C01BB
:100D50006F3F7F4F8F4F9F4F69F182E0C816D104DC
:100D6000E104F104D0F28B899C89AD89BE89C81653
:100D7000D906EA06FB0618F3D0CFB701A601CE01CB
:100D80000E94B903F801668B778B808F918FF801F1
:100D9000C28AD38AE48AF58A86899789A08DB18D23
:100DA000892B8A2B8B2B09F4B8CFAF96D38FC28FA8
:100DB00080E001C081E0DF91CF911F910F91FF9002
:100DC000EF90DF90CF9008958F929F92AF92BF9255
:100DD000CF92DF92EF92FF920F931F93CF93DF9307
:100DE000EC016A017B010E94AE04811138C0B70199
:100DF000A601CE010E94B9034B015C016BA77CA741
:100E00008DA79EA76E018FE2C80ED11CF601CE0100
:100E1000815D9D4F1192E817F907E1F7E12CF12C64
:100E200089859A85E816F90640F081E029853A859A
:100E30002E153F05A9F480E013C001E010E0A501E4
:100E400094012E0D3F1D411D511DB60189810E9447
:100E5000DB1D8111EACF8FEFE81AF80AE1CF81E0BC
:100E6000DF91CF911F910F91FF90EF90DF90CF9086
:100E7000BF90AF909F908F9008954F925F926F9226
:100E80007F928F929F92AF92BF92CF92DF92EF921A
:100E9000FF920F931F93CF93DF93CDB7DEB7A09749
:100EA0000FB6F894DEBF0FBECDBF5B01F42EDB01A1
:100EB0001D921C920E94E1036C0197FD4EC2FC0141
:100EC000EE0FFF1FEE51FE4F00811181011511053C
:100ED00009F445C2F50111830083FF2DFE7FFF2E2B
:100EE000D8018C91882369F011968C910E94891DFC
:100EF00080FD07C0FF2009F434C282FF32C28AE0BD
:100F00003CC2F8011082C1828C2D0E94B71C80FD6A
:100F10002AC2FF2011F082FDF2CFD80113961C9255
:100F20008FEF9FEFDC01F80183A794A7A5A7B6A7D1
:100F300040E050E0BA01C8010E94020581114EC094
:100F4000C8010E9448058230910509F049C0680136
:100F5000FBE0CF1AFEEFDF0A9E012F5F3F4F7901C2
:100F600048013BEC831A3DEF930A5701C6010E94EA
:100F7000A403D5016D937D938D939D935D01B0E1A5
:100F8000CB0ED11CC814D90489F76E01E1E1CE0E55
:100F9000D11C88248A94982C5401D7014D915D91DD
:100FA0006D917D917D01411551056105710509F432
:100FB000DEC1F801138283A694A6A5A6B6A6C80131
:100FC0000E9434058111D6C1C8010E9448058230B3
:100FD000910530F0CE14DF0401F702C084E090E008
:100FE0008430910509F4C1C1029710F08DE0C5C1AC
:100FF000F80182AD93AD81159240C1F7F801EB5B2A
:10100000FF4F408051804114510419F0612C712C24
:1010100007C0C8018D5A9F4F0E94A4032B013C01B9
:10102000D8019B962D913D914D915C919E97298B76
:101030003A8B4B8B5C8BF801478A508E618E728E97
:10104000A7ACA2828FEF8A0D823080F6B4AC8B2DD4
:1010500090E092878187009749F29C0121503109E5
:1010600082239323892B11F6E05CFF4F80809180CF
:1010700018969C928E921797C4018F709927892B8E
:1010800009F0B4CF3296808191816C01E12CF12C72
:10109000892B39F4C801815B9F4F0E94A4036B0127
:1010A0007C01D801DD96ED91FC91DE97309709F433
:1010B0009DCFAA2DB0E0A30192010E945725698F10
:1010C0007A8F8B8F9C8F9F0140E050E02D8F3E8F59
:1010D0004F8F58A3C401F4E096958795FA95E1F7F0
:1010E000280F391F411D511DDA01C901298D3A8D83
:1010F0004B8D5C8D280F391F4A1F5B1F2D8B3E8B3C
:101100004F8B588FC216D306E406F50608F46ECF4F
:10111000C701B601621B730B840B950B2B2D30E0BE
:1011200040E050E00E942F25DA01C9010197A10992
:10113000B109853F9F4FAF4FBF4008F057CF263FC3
:101140008FEF38074105510550F4263F9FE03907DE
:101150004105510540F4AA24A394B12C07C073E0C3
:10116000A72EB12C03C062E0A62EB12C69017A0132
:10117000A2E0CA0ED11CE11CF11CF801C38AD48A7A
:10118000E58AF68A29893A894B895C89238F348FCD
:10119000458F568F8D8D9E8DAF8DB8A1280F391F2D
:1011A0004A1F5B1F2D8F3E8F4F8F58A3278F30A371
:1011B00041A352A349895A896B897C898D899E896B
:1011C000AF89B88D480F591F6A1F7B1F47A350A7CF
:1011D00061A772A7B3E0AB16B104E1F4E75AFF4F81
:1011E00080819181892B09F001CF892809F0FECEF9
:1011F000C801855A9F4F0E94A403F80163A374A3FA
:1012000085A396A342E0CC0CDD1CEE1CFF1C4A9586
:10121000D1F732C0892809F4E9CE8D8D9E8DAF8D2E
:10122000B8A1298D3A8D4B8D5C8D820F931FA41F21
:10123000B51FF80183A394A3A5A3B6A3F2E0AF164C
:10124000B10429F4CC0CDD1CEE1CFF1C15C0A3E07E
:10125000B0E0A70196010E945725DC01CB01B695AD
:10126000A7959795879521E0C222DD24EE24FF24DF
:10127000C80ED91EEA1EFB1E3FEFC30E31E0D31E7F
:10128000E11CF11C89E0F694E794D794C7948A9501
:10129000D1F74C145D046E047F0408F4A7CE8FEFE1
:1012A0009FEFDC01F8018787908BA18BB28B83873E
:1012B0009487A587B68780E88483F3E0AF16B104EE
:1012C000F1F5F801E15AFF4F808191810197B9F55D
:1012D00049895A896B897C894F5F5F4F6F4F7F4F78
:1012E000C8010E94340581112AC0D80114961C92AD
:1012F000F801E35DFD4F8081918185359A4AF9F4CB
:10130000C8018F960E94A4036235724581469144BC
:10131000B1F4C8018D5E9D4F0E94A40362377247ED
:101320008144914661F4C801855E9D4F0E94A403EB
:10133000D8011B966D937D938D939C931E97F80116
:10134000A0828091E0019091E10101969093E101EA
:101350008093E0019683858304C08BE00EC08CE00F
:101360000CC080E00AC083E008C081E006C083E0D2
:1013700090E030CE84E090E02DCEA0960FB6F894A9
:10138000DEBF0FBECDBFDF91CF911F910F91FF90B8
:10139000EF90DF90CF90BF90AF909F908F907F9015
:1013A0006F905F904F9008952F923F924F925F926F
:1013B0006F927F928F929F92AF92BF92CF92DF9265
:1013C000EF92FF920F931F93CF93DF9300D000D043
:1013D000CDB7DEB7423051056105710508F4E6C0AE
:1013E000FC01C388D488E588F6884C155D056E0538
:1013F0007F0508F0DBC0280139016A017B019C836D
:101400008B838081823009F471C0833009F490C0ED
:10141000813009F0CBC05A01B694A794A40EB51E32
:10142000C501892F99278695478D50A161A172A189
:10143000480F591F611D711DCF010E943405182FDF
:101440008111B5C02B813C81215D3F4F3A832983B7
:1014500015013FEF231A330A81E0B822E981FA81AE
:10146000EA0DFB1D4601570191E089229924AA2427
:10147000BB24C0FE09C08081282F2F7030E1439E1D
:10148000C0011124822B01C0842D808381E0EB8177
:10149000FC818383478D50A161A172A1C101892F75
:1014A00099278695480F591F611D711DCF010E9414
:1014B0003405182F81117BC0F1E03F22E981FA81C8
:1014C000E20DF31D89288A288B2841F054E0769498
:1014D0006794579447945A95D1F706C00081007FCE
:1014E000852D8F70402E482A40825BC077276F2D54
:1014F0005E2D4D2DEB81FC81878D90A1A1A1B2A124
:10150000480F591F6A1F7B1FCF010E943405182FF7
:1015100081114DC0EB81FC81BF96CC0CDD1CE894A1
:10152000C0F821E0D222EC0DFD1D4082518239C06D
:10153000EB81FC81878D90A1A1A1B2A127E07695D6
:101540006795579547952A95D1F7480F591F6A1FF8
:101550007B1FCF010E943405182F811128C04B81B9
:101560005C81415D5F4FCC0CDD1CCC0CDD1CFCEFC5
:10157000CF22F1E0DF22C40ED51EC6010E94A403D3
:101580002FE07222DC01CB0188279927AA27B07FA0
:10159000482A592A6A2A7B2AF601408251826282AD
:1015A000738281E0EB81FC81838301C012E0812F93
:1015B0000F900F900F900F90DF91CF911F910F918F
:1015C000FF90EF90DF90CF90BF90AF909F908F9063
:1015D0007F906F905F904F903F902F9008954F9223
:1015E0005F926F927F928F929F92AF92BF92CF92B3
:1015F000DF92EF92FF920F931F93CF93DF938C01B3
:101600002A013B01FC01C081D181411551056105D1
:10161000710599F48B849C84AD84BE8481149104FB
:10162000A104B10459F18B899C89AD89BE898816C2
:101630009906AA06BB0630F121C0CE010E94A5057D
:10164000623071058105910508F4EEC06F3FFFEF30
:101650007F078F079F0729F44FEF3FEF2FEF9FEF93
:10166000EBC0CB88DC88ED88FE886C157D058E0587
:101670009F0508F4DEC05301420104C0812C912C67
:10168000540183948F859889A989BA89892B8A2BDB
:101690008B2B11F440E0C9C084149504A604B70450
:1016A00009F047C0750164012FEFC21AD20AE20A9D
:1016B000F20A8B899C89AD89BE89C816D906EA06CB
:1016C000FB0628F092E0C92ED12CE12CF12CB701B9
:1016D000A601F801808191810E94A5056130710504
:1016E0008105910509F4A0C06F3FFFEF7F078F07C9
:1016F0009F0709F4B1CF672B682B692BA9F08B8565
:101700009C85AD85BE8582309105A105B10588F027
:101710004B895C896D897E8984179507A607B70771
:1017200040F44C015D0105C0C114D104E104F10491
:10173000D1F5750164012FEFC21AD20AE20AF20A4A
:101740008B899C89AD89BE89C816D906EA06FB0635
:1017500060F082E088169104A104B10408F49ACFE5
:1017600082E0C82ED12CE12CF12CB701A601F801A2
:10177000808191810E94A505611571058105910502
:1017800091F0613071058105910509F44DC06F3FFD
:101790007F4F8F4F9F4F09F45FCFC814D904EA04DD
:1017A000FB0449F677CF0FEF1FEF9801B701A601B1
:1017B000CE010E94D409811134C041145104610446
:1017C0007104E9F4CB86DC86ED86FE868F859889E8
:1017D000A989BA894B895C896D897E8942505109F2
:1017E00061097109481759076A077B0790F001974B
:1017F000A109B1098F87988BA98BBA8B0AC0970171
:101800008601B301A201CE010E94D4098823D1F23E
:1018100008C08C8181608C834C2D3D2D2E2D9F2DF9
:101820000BC0813009F418CF41E030E020E090E0B7
:1018300003C0462F372F282F642F732F822FDF915D
:10184000CF911F910F91FF90EF90DF90CF90BF90BD
:10185000AF909F908F907F906F905F904F90089582
:101860004F925F926F927F92AF92BF92CF92DF9230
:10187000EF92FF920F931F93CF93DF93EC010881B8
:101880001981CE84DF84E888F98880E2C80ED11CF3
:10189000E11CF11CC114D104E0E2EE06F10420F0D9
:1018A0001E8A1F8A188E198E8E899F89A88DB98DE0
:1018B0000097A105B10509F4A6C05B01B701A60117
:1018C000517066277727452B462B472B09F08DC093
:1018D0000196A11DB11D8E8B9F8BA88FB98F4A8950
:1018E0005B896C897D89F801411551056105710598
:1018F000C1F487819085A0E0B0E0B701A60135E092
:1019000076956795579547953A95D1F748175907B2
:101910006A077B0708F469C01E8A1F8A188E198E11
:1019200072C0818592850197A0E0B0E02601370161
:1019300029E076946794579447942A95D1F78421A7
:101940009521A621B721892B8A2B8B2B09F04DC01D
:10195000C8010E94A5052B013C016230710581057B
:10196000910510F482E052C08FEF481658066806C1
:10197000780611F481E04AC0F80183899489A58929
:10198000B689481659066A067B0610F1AB2821F283
:101990004A895B896C897D89CE010E94EF0A2B01FF
:1019A0003C01611571058105910579F16130710581
:1019B00081059105B9F28FEF48165806680678063A
:1019C000C9F2B301A201C8010E94E4068111D2CF7D
:1019D0004A8A5B8A6C8A7D8AB301A201C8010E948F
:1019E000B9036E8B7F8B888F998FCE86DF86E88ACE
:1019F000F98A015D1F4FE1E0DE22C00ED11EDB8EB1
:101A0000CA8E80E003C084E001C087E0DF91CF91FF
:101A10001F910F91FF90EF90DF90CF90BF90AF900C
:101A20007F906F905F904F9008952F923F924F92CA
:101A30005F926F927F928F929F92AF92BF92CF925E
:101A4000DF92EF92FF920F931F93CF93DF93FC01EE
:101A5000C080D1809B018901F90140812F5F3F4FF8
:101A60004F32C9F34C35B9F3FC0116821782108648
:101A70001186F8012081203290F0EC017C01FCE11C
:101A8000EF0EF11C3C0187E2680E711C80E2382EDB
:101A900095E0292E4601EFE28E0E911C52C020E8FF
:101AA000FC0127A3DF91CF911F910F91FF90EF9041
:101AB000DF90CF90BF90AF909F908F907F906F906E
:101AC0005F904F903F902F900C9465063192E615F1
:101AD000F705E1F7F80180E090E020E030E068E011
:101AE00070E02F5F3F4F5191513268F5020F131F85
:101AF000892B09F48DC08C8D853E09F42C8E5132D2
:101B000008F450C080E08FA3A880B980CE010E9465
:101B10006506882309F448C09FA1811173C092FD16
:101B20008CC08C8184FF72C06E857F857170680D5A
:101B3000791DF60180810E943D046E837F83888732
:101B40009987F701C3CF5F3221F4F801E20FF31F49
:101B500005C05C3551F4F9CF4C3541F69F01201B8F
:101B6000310B41914F32C1F7F9CF5E3209F45DC0BC
:101B70008617970708F04CC057FF06C0A52FAF7710
:101B8000B0E0A757BF4F5C91A52EB12CAAECB1E0F5
:101B90004D91442309F43EC0442E512CA414B504A5
:101BA000B9F736C084E0AFCF4E895F89688D798DF3
:101BB000C5010E9434058111AFCFEA8DFB8D908164
:101BC0009923F1F093859F739C83938593FD12C0B5
:101BD000AF01455F5F4FD70121919D9130E0291BF7
:101BE00031094E175F0719F0232BB1F303C0232BE4
:101BF00009F492CF60E070E0CE010E94300C89CFF2
:101C000084E08ACF8430C9F492FD17C085E015C006
:101C100086E013C04FE9450F4A3108F45052D7010E
:101C2000A80FB91F5C9301965CCF6B30710581F3EF
:101C300088E090E06BE070E054CFDF91CF911F918E
:101C40000F91FF90EF90DF90CF90BF90AF909F905B
:101C50008F907F906F905F904F903F902F9008955E
:101C60000F931F93CF93DF93EC010881198184E0D8
:101C70004E895F89688D798D411551056105710522
:101C800001F1C8010E94340581111DC0EA8DFB8D50
:101C900090819923E9F083858F738C83953E49F079
:101CA0009E3239F08F3029F08F71883011F080E04A
:101CB00011C060E070E0CE010E94300C8823C1F2B8
:101CC00002C08823A1F31E8A1F8A188E198E02C0B3
:101CD00084E0F9CFDF91CF911F910F910895EF929A
:101CE000FF920F931F93CF938C01DC01ED90FC903A
:101CF0000E946506C82F811141C0F80146895789A5
:101D0000608D718DC7010E943405C82F811136C0C6
:101D1000D8015A96ED91FC915B978081853E99F4AC
:101D2000F80146895789608D718DC7010E9434057D
:101D3000C82F811126C0D8015A96ED91FC915B976E
:101D4000CF01809608C0882359F361E070E0C80194
:101D50000E94300CCFCF11928E179F07E1F7B80188
:101D6000645E7F4F4BE050E0F801828D938D0E94BE
:101D7000320481E0D70113968C9303C0C43009F478
:101D8000C7E08C2FCF911F910F91FF90EF90089596
:101D90004F925F926F927F928F929F92AF92BF927B
:101DA000EF92FF920F931F93CF93DF937C014A0131
:101DB0005B01B901A80122E082169104A104B104DB
:101DC00010F482E065C0FC01C081D1818B899C89BF
:101DD000AD89BE8988169906AA06BB0690F74115FB
:101DE00051056105710541F00FEF1FEF9801CE011C
:101DF0000E94D40981114CC0B501A401F701808172
:101E000091810E94A5052B013C0161157105810599
:101E1000910511F480E03CC06130710581059105A8
:101E200081F26F3F7F4F8F4F9F4F89F100E010E0AD
:101E30009801B501A401CE010E94D409811128C0E6
:101E40008F859889A989BA894B895C896D897E8932
:101E50004A015B01E2E08E1A9108A108B1088815D9
:101E60009905AA05BB0550F40196A11DB11D8F87E8
:101E7000988BA98BBA8B8C8181608C835301420132
:101E8000441655066606770608F4B6CFC3CF81E040
:101E9000DF91CF911F910F91FF90EF90BF90AF9086
:101EA0009F908F907F906F905F904F9008950F93C9
:101EB0001F93CF93DF93EC010E94AE04982F811102
:101EC00061C08881833009F053C08C81813009F072
:101ED0004FC0BE01615D7F4FFB01CE01815D9D4F13
:101EE0001192E817F907E1F785E5FE01E35DFD4F83
:101EF00080838AEA3196808382E58FA788AB81E66A
:101F000089AB91E49AAB22E77B97208331962083BB
:101F100031969083319680833F85288999898A8973
:101F20003196308331962083319690833196808329
:101F30003B852C859D858E85319630833196208317
:101F400031969083319680838B8D9C8DAD8DBE8D27
:101F50009C01AD012F5F3F4F4F4F5F4F2BA73CA719
:101F60004DA75EA701E010E089810E94DB1D1C8265
:101F700040E050E060E089810E944C1E91E08111B8
:101F800001C090E0892FDF91CF911F910F910895AB
:101F90001F93CF93DF9300D000D000D0CDB7DEB732
:101FA0009C838B837E836D83142F7A836983CE0118
:101FB00001960E94E10397FD20C0880F991FFC0144
:101FC000EE51FE4F0190F081E02D309709F0108224
:101FD000EB81FC81309709F01082DC01AE51BE4FDD
:101FE000ED93FC93112359F040E0BE016D5F7F4FEC
:101FF000CE0105960E943D0703C08BE001C080E042
:1020000026960FB6F894DEBF0FBECDBFDF91CF91FD
:102010001F9108954F925F926F927F928F929F923D
:10202000AF92BF92CF92DF92EF92FF920F931F93E6
:10203000CF93DF93CDB7DEB7E0970FB6F894DEBF4E
:102040000FBECDBF7CA76BA7009709F45BC1142F0F
:102050007C01242F2F73C22E422FBE01675D7F4F5C
:10206000CE018B960E943D07D82E811158C189A5BB
:102070009AA59A8389836BA57CA5CE0101960E94BF
:10208000150D811103C098A597FD86E0912F9C71D5
:1020900009F46DC0882361F0843021F4CE010196EB
:1020A0000E946F0E3C2D3860C32E882339F031C159
:1020B0008D81817109F02CC112FD26C1C3FE65C05E
:1020C000EB8DFC8D1686178692E3908B80E5818BD5
:1020D000EB8DFC8D168A178A908F818FAB8CBC8C10
:1020E00009A51AA5B501D8018C910E943D042B01C8
:1020F0003C0180E2F5018387EB8DFC8D128E138EFF
:10210000D8018C91833011F4148A158AEB8DFC8DE3
:10211000148E158E168E178E81E0F801838341147C
:1021200051046104710471F183A494A4A5A4B6A41C
:1021300000E010E09801B301A201CE0101960E94D7
:10214000C80E8111E6C0B501A40189A59AA50E9417
:102150003405E9A5FAA521E0421A51086108710881
:102160004386548665867686882351F0D2C08111D5
:10217000D0C08D8184FDCAC011FF02C080FDC8C0DF
:10218000C3FE03C03C2D3064C32E09A51AA5F80177
:1021900083A594A5A5A5B6A5F701848F958FA68FD5
:1021A000B78FAB8CBC8CB1A2A0A2B501D8018C9129
:1021B0000E943D042B013C01F701668377838087F1
:1021C0009187C5014C960E94A4034B015C01D70185
:1021D0001A966D937D938D939C931D9711961C93E6
:1021E0000E93F8018581968113969C938E93129796
:1021F0001E96CC921E971F961C921F9758961D9262
:102200001D921D921C925B97F701108A118A128A07
:10221000138AC5FE80C081149104A104B10409F49D
:102220007AC050968D929D92AD92BC925397F801D0
:1022300081859285A0E0B0E09C01AD0169E0220FAC
:10224000331F441F551F6A95D1F72DA73EA74FA7EF
:1022500058AB8DA59EA5AFA5B8A988159905AA0567
:10226000BB0500F5B301A201D7018D919C910E949D
:10227000A5052B013C012DA53EA54FA558A9821A05
:10228000930AA40AB50A623071058105910540F0F0
:102290006F3F7F4F8F4F9F4FE1F6DD24D39402C0F5
:1022A00082E0D82ED70154964D925D926D927C9229
:1022B0005797D11034C0D501C4019170AA27BB270C
:1022C000892B8A2B8B2B39F1B301A20189A59AA501
:1022D0000E94B9036115710581059105F1F029E0AE
:1022E000B694A794979487942A95D1F7DC01CB01F3
:1022F000880D991DAA1DBB1DF701808F918FA28F9C
:10230000B38F09C089E00FC088E003C084E001C03A
:1023100087E0D82E04C080E006C092E0D92ED70115
:102320001D921C928D2DE0960FB6F894DEBF0FBE65
:10233000CDBFDF91CF911F910F91FF90EF90DF9074
:10234000CF90BF90AF909F908F907F906F905F9055
:102350004F9008952F923F924F925F926F927F928B
:102360008F929F92AF92BF92CF92DF92EF92FF92A5
:102370000F931F93CF93DF9300D000D0CDB7DEB77C
:102380007C014B015A013C832B83F901118210829D
:10239000BE016F5F7F4F0E940804811112C1F701D7
:1023A000878581110EC1868580FF0AC1828593854C
:1023B000A485B5854089518962897389841B950BF1
:1023C000A60BB70BA50160E070E084179507A60780
:1023D000B70708F07BC05C0179C0F701808991895B
:1023E000A289B389AC01BD01517066277727452BBF
:1023F000462B472B09F0BBC0E981FA810185128584
:1024000001501109AC01BD01E9E07695679557953A
:102410004795EA95D1F7042315230115110509F411
:102420005AC029803A80F70144895589668977899D
:10243000C1010E94B903611571058105910509F477
:1024400061C02B013C01400E511E611C711C6501D5
:10245000CD2CDD24C694C114D10409F483C0F1014C
:102460008185928598012C0D3D1D8217930718F4E4
:102470006C01C01AD10A8601A3019201B401F101D5
:1024800081810E94901D811145C0E981FA8183817B
:1024900081114AC0DC2CCC24DD0CAC18BD08EB81CA
:1024A000FC81808191818C0D9D1D918380838C0C9A
:1024B0009D1CF70180899189A289B3898C0D9D1D8E
:1024C000A11DB11D808B918BA28BB38BA114B10484
:1024D00009F083CF73C0F701892B8A2B8B2B29F44A
:1024E000668177818085918508C044895589668990
:1024F0007789808191810E94A505623071058105EF
:10250000910510F482E007C06F3FFFEF7F078F0750
:102510009F0721F481E0F701878753C0F701648B9F
:10252000758B868B978B7DCF83A594A5A5A5B6A526
:1025300084199509A609B709A60160E070E084171F
:102540009507A607B70708F0A5CFBF01615D7F4FCC
:10255000982F8827990F40E052E0880D991D0E941E
:10256000320498CFF701408E518E628E738EF70140
:1025700080899189917020E032E0281B390B650138
:102580002A153B0508F46901F701408D518D628DD4
:10259000738D89819A810E9434058111BBCF698135
:1025A0007A81615D7F4FF701808991899170680F11
:1025B000791FA601C4010E9432046FCF80E001C0E0
:1025C00087E00F900F900F900F90DF91CF911F91A8
:1025D0000F91FF90EF90DF90CF90BF90AF909F90C2
:1025E0008F907F906F905F904F903F902F900895C5
:1025F0002F923F924F925F926F927F928F929F9213
:10260000AF92BF92CF92DF92EF92FF920F931F9300
:10261000CF93DF9300D000D0CDB7DEB77C014B0164
:102620005A013C832B83F90111821082BE016F5F36
:102630007F4F0E94080481116FC1F70187858111C6
:102640006BC1868581FF67C180899189A289B38921
:10265000AC01BD014A0D5B1D611D711D4817590775
:102660006A077B0708F0BBC05C01A094B094B7C0B8
:10267000F70180899189A289B389AC01BD015170AC
:1026800066277727452B462B472B09F019C1E9818F
:10269000FA810185128501501109AC01BD01E9E003
:1026A0007695679557954795EA95D1F704231523B5
:1026B0000115110509F498C089819A81FC0143A490
:1026C00054A465A476A4F701408D518D628D738D5D
:1026D000441655066606770609F4CEC069807A80EE
:1026E000F7014489558966897789C3010E94B90336
:1026F000611571058105910509F49FC01B012C012D
:10270000200E311E411C511C6501CD2CDD24C694C8
:10271000C114D10409F4B6C0F301818592859801F2
:102720002C0D3D1D8217930718F46C01C01AD10AB5
:102730008601A2019101B401F30181810E94DB1D98
:10274000811183C089819A81FC0143A554A565A5A7
:1027500076A54219530964097509860120E030E025
:10276000401751076207730770F4542F4427550F21
:10277000B401640F751F40E052E08F960E9432044E
:10278000E981FA811382DC2CCC24DD0CAC18BD0865
:10279000EB81FC81808191818C0D9D1D91838083D3
:1027A0008C0C9D1CF70180899189A289B3898C0DBD
:1027B0009D1DA11DB11D808B918BA28BB38B42857A
:1027C000538564857585481759076A077B0710F498
:1027D000AC01BD01F7014287538764877587A11457
:1027E000B10409F045CF1EC0F701892B8A2B8B2B32
:1027F00069F4668177818085918561157105810510
:102800009105B1F440E050E0BA0104C04489558913
:1028100066897789C7010E94EF0A611571058105F4
:10282000910531F4F70186858064868780E074C065
:10283000613071058105910511F482E007C06F3F99
:10284000FFEF7F078F079F0721F481E0F70187875C
:1028500063C0F701648B758B868B978B468057809E
:102860006084718445284628472809F025CF66836F
:1028700077838087918720CF0E94AE04882309F454
:102880002DCFE3CFF7014089518962897389828511
:102890009385A485B585481759076A077B0758F0C3
:1028A000C3010E94AE048111D0CFE981FA8123A631
:1028B00034A645A656A6F701208E318E428E538E41
:1028C000F70180899189917020E032E0281B390B53
:1028D00065012A153B0508F46901F701408D518D0A
:1028E000628D738D89819A810E9434058111ADCFEB
:1028F00029813A81215D3F4FF7018089918991704B
:10290000A601B401820F931F0E943204E981FA816B
:1029100021E023833BCF87E00F900F900F900F9023
:10292000DF91CF911F910F91FF90EF90DF90CF90AB
:10293000BF90AF909F908F907F906F905F904F90DF
:102940003F902F900895EF92FF920F931F93CF9394
:10295000DF9300D0CDB7DEB77C01BE016F5F7F4F44
:102960000E94080481113CC0F701968596FF38C08B
:10297000448D558D668D778D89819A810E943405AD
:1029800081112EC0F70100A111A1F8018385806299
:102990008387F7012681378140855185B801808181
:1029A00091810E945204F7013285238594858585A3
:1029B000F801348F258F968F878F168A178A82E3C6
:1029C000808F80E5818F128A138A89819A8121E024
:1029D000FC0123830E94570FF70196859F7B968702
:1029E0000F900F90DF91CF911F910F91FF90EF907B
:1029F00008950F931F93CF93DF9300D0CDB7DEB729
:102A00008C010E94A31481110BC0BE016F5F7F4F28
:102A1000C8010E940804811103C0F80111821082CC
:102A20000F900F90DF91CF911F910F9108954F92CA
:102A30005F926F927F928F929F92AF92BF92CF924E
:102A4000DF92EF92FF920F931F93CF93DF9300D00B
:102A500000D000D0CDB7DEB78C016A017B01BE018A
:102A60006F5F7F4F0E940804811164C1D8011F96D7
:102A70008C911F9781115EC11A968D919D910D9039
:102A8000BC91A02D8C159D05AE05BF0530F4F80155
:102A9000268521FD02C06C017D01D80150968D90E4
:102AA0009D90AD90BC905397F801108A118A128ABC
:102AB000138AC114D104E104F10409F434C1E98199
:102AC000FA8181859285A0E0B0E02C013D0139E0DA
:102AD000440C551C661C771C3A95D1F7811491045F
:102AE000A104B10409F43FC0F1E08F1A9108A108D4
:102AF000B108C701B6016150710981099109A301AB
:102B000092010E942F252B833C834D835E83C50158
:102B1000B401A30192010E942F258B819C81AD817C
:102B2000BE8182179307A407B507E8F08827992785
:102B3000DC0184199509A609B70988229922AA22DD
:102B4000BB22D80150968D929D92AD92BC92539724
:102B5000C818D908EA08FB0854964D915D916D910B
:102B60007C91579732C0F801468157816085718505
:102B7000411551056105710519F540E050E0BA01B4
:102B8000C8010E94EF0AAB01BC014130510561054B
:102B9000710529F482E0D8011F968C93CBC04F3F7A
:102BA000BFEF5B076B077B0721F481E0F8018787A4
:102BB000C1C0D80116964D935D936D937C93199780
:102BC000F801448B558B668B778B41155105610558
:102BD000710509F03FC0C12CD12C760178C0C41812
:102BE000D508E608F708F80180899189A289B38998
:102BF000840D951DA61DB71D808B918BA28BB38B69
:102C0000868581FF2EC0C8010E94EF0AAB01BC017E
:102C1000411551056105710559F14F3FBFEF5B0744
:102C20006B077B0711F2423051056105710508F40D
:102C3000B1CFE981FA8183899489A589B68948173A
:102C400059076A077B0708F0A5CFF801448B558B1D
:102C5000668B778B4C145D046E047F0408F4BFCF41
:102C60000AC0808191810E94A505AB01BC01D5CF2E
:102C7000C12CD12C7601F80180899189A289B38970
:102C80008C0D9D1DAE1DBF1D808B918BA28BB38BB8
:102C9000D701C6019170AA27BB27892B8A2B8B2BC2
:102CA00009F499CF89819A810E94B9036115710550
:102CB0008105910509F46ECF29E0F694E794D79445
:102CC000C7942A95D1F7C60ED71EE81EF91EF80143
:102CD00080899189A289B3894285538564857585E8
:102CE000481759076A077B0738F482879387A487B8
:102CF000B5872685206426879170AA27BB27892B54
:102D00008A2B8B2B71F0F801808D918DA28DB38D64
:102D10008C159D05AE05BF0521F0C08ED18EE28ECB
:102D2000F38E80E007C080E090E0DC01C12CD12C64
:102D30007601E2CF26960FB6F894DEBF0FBECDBF68
:102D4000DF91CF911F910F91FF90EF90DF90CF9087
:102D5000BF90AF909F908F907F906F905F904F90BB
:102D600008950F931F93CF93DF9300D000D0CDB77A
:102D7000DEB77C836B830097D9F18C0140E0BE0104
:102D80006F5F7F4FCE0103960E943D0781112CC0DB
:102D900089819A81F801918380836B817C81C8014C
:102DA0000E94150D81112AC0F80187A187FD0FC06F
:102DB000848184FF18C0628D738DE981FA818081DE
:102DC0000E943D04F8016683778380879187E981BB
:102DD000FA8185819681F80193838283C8010E94DC
:102DE0006506843039F485E0F8011182108209C04B
:102DF00089E007C08111F8CF80E003C0843099F3E7
:102E0000F3CF0F900F900F900F90DF91CF911F9104
:102E10000F9108950F931F93CF93DF9300D0CDB7F9
:102E2000DEB78C01BE016F5F7F4F0E9408048111E5
:102E300003C0F801118210820F900F90DF91CF91A3
:102E40001F910F910895CF92DF92FF920F931F93DE
:102E5000CF93DF9300D0CDB7DEB78C016B01BE01FD
:102E60006F5F7F4F0E940804F82E811123C0C801B4
:102E7000C114D10419F40E9465061BC00E94300ED3
:102E8000982F9B7FB1F4F6011186F8018689978906
:102E9000A08DB18D892B8A2B8B2B21F0B601C80117
:102EA0000E945F0460E070E0C8010E94300C843032
:102EB00009F0F82E8F2D0F900F90DF91CF911F9179
:102EC0000F91FF90DF90CF900895EF92FF921F93A4
:102ED000CF93DF93CDB7DEB7AA970FB6F894DEBFD6
:102EE0000FBECDBF9AA789A77B0140E0BE016F5FEF
:102EF0007F4FCE0189960E943D07182F811120C077
:102F000069A57AA5CE0101960E94150D182F811191
:102F100017C088A587FD13C0E114F10489F0F701FB
:102F200011868F89988DA98DBA8D892B8A2B8B2B31
:102F300039F0B701CE0101960E945F0401C016E08E
:102F4000812FAA960FB6F894DEBF0FBECDBFDF91DA
:102F5000CF911F91FF90EF9008952F923F924F9243
:102F60005F926F927F928F929F92AF92BF92CF9219
:102F7000DF92EF92FF920F931F93CF93DF93CDB722
:102F8000DEB729970FB6F894DEBF0FBECDBF9C8386
:102F90008B831B017A0140E0BE016F5F7F4FCE0142
:102FA00003960E943D078D838111BDC009811A815E
:102FB000D7010D931C93F80187859089A189B28967
:102FC0004388548865887688B301A201425051092C
:102FD00061097109481759076A077B0730F0F10149
:102FE00080839183A283B3839EC080818130A1F5C9
:102FF00082E0482E512C612C712CC12CD12C7601F1
:10300000B301A201C8010E94A5056F3FBFEF7B0776
:103010008B079B0709F471C061307105810591052B
:1030200009F46EC0672B682B692B29F4EFEFCE1AD9
:10303000DE0AEE0AFE0AFFEF4F1A5F0A6F0A7F0AE6
:10304000E981FA8183899489A589B6894816590648
:103050006A067B06A8F258C0878C90A0A1A0B2A0F7
:1030600000E010E0C12CD12C760101151105A9F466
:10307000D501C4010196A11DB11D8E839F83A88730
:10308000B987B501A40189819A810E943405811113
:103090003AC08E809F80A884B984E981FA818081BA
:1030A000823071F4E00FF11F87A590A9892B29F4D4
:1030B0009FEFC91AD90AE90AF90A0E5F1F4F14C017
:1030C000CF018F96800F911F0E94A403DC01CB01DA
:1030D000BF70892B8A2B8B2B29F4AFEFCA1ADA0A1F
:1030E000EA0AFA0A0C5F1F4F1170B1E04B1A51083F
:1030F0006108710809F0B9CF07C0E1E0ED8304C0B1
:10310000F2E0FD8301C08D83D101CD92DD92ED927D
:10311000FC921397E981FA81C786D08AE18AF28A04
:103120008481816084838D8129960FB6F894DEBFF7
:103130000FBECDBFDF91CF911F910F91FF90EF9008
:10314000DF90CF90BF90AF909F908F907F906F90C7
:103150005F904F903F902F900895EF92FF920F93C2
:103160001F93CF93DF9300D0CDB7DEB77C01BE01B4
:103170006F5F7F4F0E94080481116CC0F7011785B3
:10318000111163C0868581FF62C080899189A289FF
:10319000B389428553856485758584179507A6078D
:1031A000B70708F056C0892B8A2B8B2B89F44681F0
:1031B00057816085718500E010E09801C7010E9489
:1031C000C80E182FF70116821782108611862EC09E
:1031D000F7014489558966897789808191810E94A8
:1031E000A505AB01BC014F3FFFEF5F076F077F07EE
:1031F00039F0413051056105710521F412E016C026
:1032000011E014C0E981FA8183899489A589B6897E
:10321000481759076A077B0748F4F701048915899D
:1032200026893789C7010E94C80E182FF7018089A7
:103230009189A289B38982879387A487B587868578
:1032400080648687112329F01787812F03C087E0C8
:1032500001C080E00F900F90DF91CF911F910F91EF
:10326000FF90EF900895BF92CF92DF92EF92FF927E
:103270000F931F93CF93DF93CDB7DEB7C455D1091A
:103280000FB6F894DEBF0FBECDBF65969FAF8EAF71
:10329000659742E0BE016F5A7F4FCE018D5A9F4F16
:1032A0000E943D0781116EC063968EAD9FAD6397FE
:1032B0009AA789A765966EAD7FAD6597CE01899671
:1032C0000E94150D81115EC061968FAD619787FDDB
:1032D00028C0BDA4B0FC27C063960EAD1FAD639798
:1032E00025966EAD7FAD2597F80180810E943D0443
:1032F0006B017C01B4FE19C01A830983CF82D88682
:10330000E986FA86CE0101960E94650681113AC0CF
:10331000CE0101960E94300E882329F0843029F0D6
:1033200031C086E02FC087E02DC009A51AA52396DD
:103330004CAD5DAD6EAD7FAD2397C8010E943405E5
:10334000811120C02596EEADFFAD259785EE8083D7
:1033500081E0F8018383C114D104E104F10439F45C
:1033600063968EAD9FAD63970E94570F0BC000E030
:1033700010E09801B701A601CE0189960E94C80EFF
:10338000882371F3CC5ADF4F0FB6F894DEBF0FBE1F
:10339000CDBFDF91CF911F910F91FF90EF90DF9004
:1033A000CF90BF9008958F929F92AF92BF92DF927D
:1033B000EF92FF920F931F93CF93DF93CDB7DEB7BA
:1033C000EA970FB6F894DEBF0FBECDBF9AAF89AFB4
:1033D00042E0BE01695C7F4FCE01C9960E943D0765
:1033E000F82E8111AEC08FA998AD9A83898369ADFB
:1033F0007AADCE0101960E94150DF82E882331F189
:1034000084E0F8129EC08FA998AD9AA789A740E0E2
:1034100050E0BA01CE0189960E94EF0A4B015C018F
:103420006115710581059105A1F061307105810576
:10343000910591F482E0F82E00E010E09801B501CA
:10344000A401CE0189960E94C80E7BC028E0F22E0E
:1034500078C097E0F92EF0CF6F3F7F4F8F4F9F4F8F
:1034600009F46CC0B501A4018FA998AD0E94E406CF
:10347000F82E8111E1CF8FA998ADFC01BF96CA96B5
:1034800020E22193E817F907E1F78FA998AD1EE232
:10349000FC0117A700E102AFEB5BFF4F10823196F2
:1034A0001082319632E3D32ED082319640E5E42E5D
:1034B000E082BC01615D7F4FA50194010E9452042E
:1034C0008FA998ADBC01615D7F4F40E250E0815B08
:1034D0009F4F0E9432048FA998ADFC01E05BFF4F23
:1034E00010832F81388549855A85BC01615B7F4FE8
:1034F0000E945204EFA9F8AD11E01383CE010196AA
:103500000E946F0EF82E811197CFEB8DFC8D168ADD
:10351000178AD08EE18E6B8D7C8DA50194018FA9C9
:1035200098AD0E945204EB8DFC8D03878FA998AD56
:10353000FC0113830E94570FF82E03C0FF24F3945D
:103540007BCF8F2DEA960FB6F894DEBF0FBECDBFAE
:10355000DF91CF911F910F91FF90EF90DF90BF907F
:10356000AF909F908F900895DF92EF92FF920F930C
:103570001F93CF93DF93CDB7DEB7C657D1090FB6F0
:10358000F894DEBF0FBECDBFE5969FAF8EAFE59737
:10359000E7967FAF6EAFE797CE018B589F4F0E94A3
:1035A000E10342E0BE016F587F4FCE018D589F4F1F
:1035B0000E943D078111DAC0E3968EAD9FADE3977F
:1035C0009AA789A7E5966EAD7FADE597CE0189965E
:1035D0000E94150D8111CAC061968FAD6197807AE6
:1035E00009F0A2C025966EAD7FAD259740E250E070
:1035F000CE018F5A9F4F0E94320448E250E0BE0134
:10360000675D7F4FCE0101960E943204E7966EAD52
:103610007FADE797CE0101960E94150D81111DC067
:103620004F81588569857A858FA598A9A9A9BAA9D6
:10363000481759076A077B0709F095C04F855889D5
:1036400069897A898FA998ADA9ADBAAD481759078C
:103650006A077B0709F087C003C0843009F086C081
:10366000CE0101960E946F0E811180C00B8D1C8DC2
:1036700061E570E06C0F7D1F635F7F4F43E150E0B9
:10368000C8010D960E9432046D968FAD6D9784FF30
:103690008062F8018387E396EEACFFACE397DD240C
:1036A000D394F701D382F801838584FF3FC04FA5EF
:1036B00058A969A97AA98F819885A985BA854817DB
:1036C00059076A077B0791F1B801F70180810E94D1
:1036D0003D04AB01BC01C7010E94B903AB01BC01B1
:1036E000411551056105710509F43FC0C7010E94EC
:1036F000340581113BC0E3968EAD9FADE397FC018D
:10370000E05BFF4F20812E3289F42F813885498577
:103710005A85BC01615B7F4F0E945204E396EEAD77
:10372000FFADE397D38202C086E020C009A51AA5A9
:1037300023964CAD5DAD6EAD7FAD2397C8010E9461
:103740003405811113C02596EEADFFAD259785EEAA
:10375000808381E0F8018383E3968EAD9FADE3978C
:103760000E94570F03C088E001C082E0CA58DF4FB3
:103770000FB6F894DEBF0FBECDBFDF91CF911F9182
:103780000F91FF90EF90DF9008951DB887B38F746D
:1037900087BBC49808958FB9779BFECF8FB10895EA
:1037A000C49A8FEF0C94CB1B0F931F93CF93DF938F
:1037B0008C01EB0184E18093E6018FEF0E94CB1B2B
:1037C0008F3F29F48091E6018111F7CF1BC08E3F16
:1037D000C9F4F8018FEF8FB9779BFECF9FB190832B
:1037E0008FB9779BFECF9FB1918322973296209716
:1037F00091F78FEF0E94CB1B8FEF0E94CB1B81E0D4
:1038000090E002C080E090E0DF91CF911F910F9196
:10381000089582E38093E5018FEF0E94CB1B282F50
:103820008F3F21F08091E5018111F6CF81E090E09A
:103830002F3F11F080E090E00895CF93DF93C4987C
:103840008FEF0E94CB1B0E94091CEC01892B19F4FD
:103850000E94D01B02C0C1E0D0E0CE01DF91CF9129
:103860000895FF920F931F93CF93DF93C82FD42F08
:10387000152F062FF72E87FF09C040E050E0BA0150
:1038800087E30E94311C8230A8F5CF77CC3099F4C1
:103890008C2F80640E94CB1B8F2D0E94CB1B802F0E
:1038A0000E94CB1B812F0E94CB1B8D2F0E94CB1B14
:1038B000CC23F1F008C00E94D01B0E941D1C892B54
:1038C00039F78FEF17C0C83011F487E801C081E0E5
:1038D0000E94CB1BCC3019F48FEF0E94CB1BCAE0A7
:1038E0008FEF0E94CB1B87FF05C0C150C9F702C0F4
:1038F00085E9F3CFDF91CF911F910F91FF9008954C
:103900001F93CF93DF93182FD92FC62F0E94091C26
:10391000009749F18C2F0E94CB1BCD3F11F1E12F75
:10392000FD2FCF019E5F20812FB9779BFECF218194
:103930002FB9779BFECF3296E817F907A1F78FEFE3
:103940000E94CB1B8FEF0E94CB1B8FEF0E94CB1BE3
:103950008F7131E020E0853009F030E0832F922F25
:1039600002C081E090E0DF91CF911F910895CF9246
:10397000DF92EF92FF920F931F93CF93DF9300D0CC
:1039800000D0CDB7DEB78111B6C00E94C51B8091B3
:10399000880081FDADC087B3806B87BBC49A87B3B5
:1039A000897F87BB81E58DB98BE983BD8FE085BDBC
:1039B00089B7806889BF789482E58DB91AE08FEF66
:1039C0000E94CB1B1150D9F740E050E0BA0180E0D3
:1039D0000E94311C813009F078C084E68093E601B2
:1039E0004AEA51E060E070E088E00E94311C8130DA
:1039F00009F043C08E010F5F1F4F6E0185E0C80EB6
:103A0000D11C78018FEF0E94CB1BF70181937F01BE
:103A1000CE16DF06B9F78B81813009F056C08C8154
:103A20008A3A09F052C08091E601811106C0809166
:103A3000E601882309F449C00AC040E050E060E094
:103A400070E489EA0E94311C8111EDCFF0CF40E093
:103A500050E0BA018AE30E94311C811136C08FEF19
:103A60000E94CB1BF80181938F01CE16DF06B9F7B8
:103A7000898186FD2CC014E02BC040E050E0BA01E3
:103A800089EA0E94311C823018F011E001E002C086
:103A900012E009EA8091E601811105C08091E601FA
:103AA000882399F009C040E050E0BA01802F0E94BD
:103AB000311C8111EFCFF2CF40E052E060E070E0C6
:103AC00080E10E94311C882319F010E001C01CE045
:103AD0001093E4010E94D01B112341F080918800D3
:103AE0008E7F8093880080E58DB902C00E94C51B3F
:103AF0008091880001C081E00F900F900F900F908F
:103B0000DF91CF911F910F91FF90EF90DF90CF90B9
:103B10000895811103C080918800089581E008957F
:103B2000EF92FF920F931F93CF937B01BA01A901EC
:103B3000811138C001151105A9F18091880080FD1F
:103B400033C08091E40183FD07C089E0440F551F15
:103B5000661F771F8A95D1F70230110510F4C1E175
:103B600001C0C2E18C2F0E94311C811114C060E0A1
:103B700072E0C7010E94D41B892B29F08EEFF81A3E
:103B800001501109A1F7C23131F440E050E0BA010F
:103B90008CE00E94311C0E94D01B81E0012B29F493
:103BA00080E003C084E001C083E0CF911F910F91BA
:103BB000FF90EF900895CF92DF92EF92FF920F93D4
:103BC0001F93CF93DF93EB0169017A01811156C0F6
:103BD0000115110509F452C08091880080FD50C084
:103BE0008091880082FD4EC08091E40183FD07C072
:103BF00099E0CC0CDD1CEE1CFF1C9A95D1F701302E
:103C0000110599F4B701A60188E10E94311C8111C8
:103C10002CC06EEFCE010E94801C31E020E0892B89
:103C200009F030E0032F122F22C0867031F0A80176
:103C300060E070E087E90E94311CB701A60189E1CC
:103C40000E94311C811113C06CEFCE010E94801CB8
:103C5000892B21F0DE5F01501109B1F76DEF80E093
:103C600090E00E94801C892B11F401E010E00E947A
:103C7000D01B81E0012B39F480E005C084E003C053
:103C800083E001C082E0DF91CF911F910F91FF90FF
:103C9000EF90DF90CF900895EF92FF920F931F93D4
:103CA000CF93DF93CDB7DEB760970FB6F894DEBF42
:103CB0000FBECDBF811134C18091880080FD32C11B
:103CC0008A01862F90E08F30910508F024C1FC0115
:103CD000E65DFF4F0C9451250E941D1C18C140E069
:103CE00050E0BA0189E00E94311C882311F011E0F4
:103CF00013C160E170E0CE0101960E94D41B892BB4
:103D0000B1F39981929596959695937029854A85F8
:103D100088859130D9F430E0322F2227240F311DCD
:103D20008F7390E0A0E0B0E0DC019927882701962E
:103D3000A11DB11D820F931FA11DB11DFAE0880FB7
:103D4000991FAA1FBB1FFA95D1F758C02295269537
:103D500026952370F4E08F9FC0011124820F911DDE
:103D600001962F81237030E0322F2227330F330F3B
:103D7000820F931FA0E0B0E02E81322F3F702B8581
:103D8000221F2227221F230F4370440F420F475048
:103D900004C0880F991FAA1FBB1F4A95D2F72EC0D7
:103DA000F090E40140E050E0BA01F2FE2EC08DE850
:103DB0000E94311C81119BCF8FEF0E94CB1B60E1D1
:103DC00070E0CE0101960E94D41B892B09F48FCF9D
:103DD00050E3F52E8FEF0E94CB1BFA94F110FACF2F
:103DE0002B8522952F7080E190E0A0E0B0E004C028
:103DF000880F991FAA1FBB1F2A95D2F7F80180834D
:103E00009183A283B38310E087C089E00E94311CB4
:103E100081116DCF60E170E0CE0101960E94D41B4C
:103E2000892B09F464CF2B858C85F1FE16C0881F81
:103E30008827881F90E001962F73820F911D820FB3
:103E4000911D2E852295269526952370215002C01E
:103E5000880F991F2A95E2F71CC0382F337082957E
:103E60008695877090E0F8E03F9F800D911D1124AA
:103E700001962C7730E035952795359527952F5F5E
:103E80003F4F829FA001839F500D929F500D1124A0
:103E9000CA01A0E0B0E0B2CF8091E401FA018083D2
:103EA000B2CF40E050E0BA0189E004C040E050E009
:103EB000BA018AE00E94311C811119CF60E170E0E3
:103EC00023C040E050E0BA018AE30E94311C811116
:103ED0000ECF7801F4E0EF0EF11C8FEF0E94CB1BA8
:103EE000F80181938F01EE15FF05B9F78CCF40E003
:103EF00050E0BA018DE80E94311C8111F8CE8FEF9D
:103F00000E94CB1B60E470E0C8010E94D41B11E04A
:103F1000892B11F078CF14E00E94D01B812F03C0B1
:103F200084E001C083E060960FB6F894DEBF0FBE58
:103F3000CDBFDF91CF911F910F91FF90EF9008952A
:103F40008091E601882319F081508093E6018091E9
:103F5000E501882319F081508093E5018091880064
:103F6000897F8093880008951F920F920FB60F9259
:103F700011242F933F934F935F936F937F938F936E
:103F80009F93AF93BF93EF93FF930E94A01FFF9166
:103F9000EF91BF91AF919F918F917F916F915F91C1
:103FA0004F913F912F910F900FBE0F901F9018953A
:103FB0008F98979A0E94E2018AE591E09F938F93F0
:103FC0000E94D9260E94C3022FEF83ED90E3215077
:103FD00080409040E1F700C000000E94C7020F90AF
:103FE0000F90B39BFECF0E94D8020E94D80160E0E0
:103FF00080E00E94500240E06BE271E087EE91E0C9
:104000000E94C80F80936A04882319F086E691E025
:1040100097C082E791E09F938F930E94D9262FEF5C
:1040200083ED90E3215080409040E1F700C0000014
:104030000E94D80160E080E00E9450020F900F9033
:1040400000E010E08AE7E82E81E0F82E65E670E0F7
:104050008AE194E00E948B26CAE1D4E0FE0101903F
:104060000020E9F73197EA51F4401F930F93FF9234
:10407000EF92FF27E65EFB4FFF93EF930E94EF2640
:10408000FE0101900020E9F73197CF018A51944059
:10409000992760E670E0865E9B4F0E948B260F5F3B
:1040A0001F4F60E070E0CE010E9465170F900F90E7
:1040B0000F900F900F900F90843041F64AE0BE01B0
:1040C0008BE694E00E940A10811138C08DE791E0E0
:1040D0009F938F930E94D92661E080E00E94500256
:1040E000DF93CF938FE091E09F938F930E94D92627
:1040F0009FEF23ED80E3915020408040E1F700C026
:1041000000000E94D8019FEF23ED80E391502040F2
:104110008040E1F700C00000F89489B7806189BF52
:1041200083E294EF9BBD8ABD8CE08EBD78940F90A6
:104130000F900F900F900F900F9004C08AE891E0BD
:104140000E94D9008799FECF89B719BE1EBC9FEF88
:1041500023ED80E3915020408040E1F700C0000053
:104160008BE694E00E94F9148CE991E0E9CFA0E19C
:10417000B0E0EDEBF0E20C9462257C011B016A01DA
:10418000FC0117821682838181FF44C39E012F5F49
:104190003F4F3901F7019381F10193FD859193FF21
:1041A00081911F01882309F431C3853239F493FDCD
:1041B000859193FF81911F01853239F4B70190E019
:1041C0000E949D2656016501E5CF10E0512C912CEF
:1041D000FFE1F915D8F08B3279F038F4803279F0BC
:1041E0008332A1F4F92DF0612EC08D3261F080335D
:1041F00069F4292D21602DC0392D3260932E892D2F
:104200008460982E2AC0E92DE86015C097FC2DC067
:1042100020ED280F2A3088F496FE06C03AE0139F5E
:10422000200D1124122F19C08AE0589E200D112450
:10423000522EE92DE0629E2E10C08E3231F496FC93
:10424000E5C2F92DF0649F2E08C08C3621F4292D8B
:104250002068922E02C0883641F4F10193FD8591C9
:1042600093FF81911F018111B3CF9BEB980F933086
:1042700020F4992D9061805E07C09BE9980F9330E0
:1042800008F066C1992D9F7E96FF16E09F73992EC8
:10429000853619F49064992E08C0863621F4392F9A
:1042A0003068932E02C01111115097FE07C01C33C5
:1042B00050F444244394410E27E00BC0183038F0EA
:1042C00027E017E005C027E09CE3492E02C0212F1C
:1042D000412C560184E0A80EB11CF6016081718169
:1042E00082819381042DA3010E94A8256C01F9818C
:1042F000FC87F0FF02C0F3FF06C091FC06C092FEEF
:1043000006C000E205C00DE203C00BE201C000E000
:104310008C858C7019F001115AC29BC297FE10C097
:104320004C0CFC85F4FF04C08A81813309F44A9463
:10433000141474F528E0241578F588E0482E2CC074
:1043400096FC2AC0812F90E08C159D059CF03CEFD7
:10435000C3163FEFD30674F0892D8068982E0AC0EB
:10436000E2E0F0E0EC0FFD1FE10FF11D80818033F2
:1043700019F411501111F4CF97FE0EC04424439448
:10438000410E812F90E0C816D9062CF41C1904C0E8
:104390004424439401C010E097FE06C01C141D0481
:1043A00034F4C601019605C085E090E002C081E0CA
:1043B00090E001110196112331F0212F30E02F5FA1
:1043C0003F4F820F931F252D30E08217930714F47F
:1043D000581A01C0512C892D897049F4552039F0A3
:1043E000B70180E290E00E949D265A94F7CF002307
:1043F00029F0B701802F90E00E949D2693FC09C010
:10440000552039F0B70180E390E00E949D265A9430
:10441000F7CF97FE4CC04601D7FE02C0812C912CED
:10442000C60188199909F301E80FF91FFE87ED8786
:10443000960124193109388B2F87012F10E011952F
:10444000019511093FEF8316930629F4B7018EE217
:1044500090E00E949D26C814D9044CF08F8598895D
:104460008815990524F4ED85FE85818101C080E3DE
:10447000F1E08F1A91082D853E852F5F3F4F3E87D3
:104480002D87801691062CF0B70190E00E949D26A2
:10449000D9CFC814D90441F49A81963320F49533C6
:1044A00019F43C8534FF81E3B70190E04EC08A8166
:1044B000813319F09C859F7E9C87B70190E00E9414
:1044C0009D26111105C094FC18C085E690E017C028
:1044D000B7018EE290E00E949D261E5F82E001E01F
:1044E000080FF301E80FF11D8081B70190E00E94F1
:1044F0009D26802F0113F3CFE6CF85E490E0B7012E
:104500000E949D26D7FC06C0C114D10441F4EC855D
:10451000E4FF05C0D194C194D1088DE201C08BE2C3
:10452000B70190E00E949D2680E32AE0C216D104E4
:104530002CF08F5FFAE0CF1AD108F7CFB70190E0E7
:104540000E949D26B701C601C0960E949D2654C1B7
:10455000833631F0833779F0833509F056C020C0B7
:10456000560132E0A30EB11CF6018081898301E07F
:1045700010E0630112C05601F2E0AF0EB11CF6016B
:10458000C080D18096FE03C0612F70E002C06FEF43
:104590007FEFC6010E9492268C01F92DFF7714C08F
:1045A000560122E0A20EB11CF601C080D18096FE19
:1045B00003C0612F70E002C06FEF7FEFC6010E9461
:1045C00080268C01F92DF0689F2EF3FD1AC0852DF1
:1045D00090E008171907A8F4B70180E290E00E9464
:1045E0009D265A94F4CFF60197FC859197FE819110
:1045F0006F01B70190E00E949D2651105A9401501E
:1046000011090115110579F7F7C0843611F08936C3
:1046100061F5560197FE09C024E0A20EB11CF60117
:1046200060817181828193810AC0F2E0AF0EB11C7A
:10463000F60160817181072E000C880B990BF92D12
:10464000FF769F2E97FF09C0909580957095619594
:104650007F4F8F4F9F4FF0689F2E2AE030E0A301DD
:104660000E941127C82EC6183FC0092D853721F496
:104670000F7E2AE030E01DC0097F8F3691F018F4DC
:10468000883559F0C3C0803719F0883711F0BEC0A3
:10469000006104FF09C0046007C094FE08C0066002
:1046A00006C028E030E005C020E130E002C020E193
:1046B00032E0560107FF09C084E0A80EB11CF601E4
:1046C000608171818281938108C0F2E0AF0EB11CDC
:1046D000F6016081718180E090E0A3010E941127C2
:1046E000C82EC6180F77902E96FE0BC0092D0E7F90
:1046F000C11650F494FE0AC092FC08C0092D0E7E2B
:1047000005C0DC2C092D03C0DC2C01C0D12E04FF18
:104710000DC0FE01EC0DF11D8081803311F4097E86
:1047200009C002FF06C0D394D39404C0802F8678BA
:1047300009F0D39403FD11C000FF06C01C2DD51451
:1047400080F4150D1D190DC0D51458F4B70180E281
:1047500090E00E949D26D394F7CFD51410F45D18F5
:1047600001C0512C04FF10C0B70180E390E00E940B
:104770009D2602FF17C001FD03C088E790E002C03C
:1047800088E590E0B7010CC0802F867859F001FFD2
:1047900002C08BE201C080E207FD8DE2B70190E02C
:1047A0000E949D26C11638F4B70180E390E00E9474
:1047B0009D261150F7CFCA94F301EC0DF11D8081B5
:1047C000B70190E00E949D26C110F5CF15C0F4E01E
:1047D000F51560F584E0581A93FE1FC0011127C03B
:1047E0002C8523FF2AC002E710E0392D3071932E6B
:1047F000F8018491811124C0552009F4E4CCB7015B
:1048000080E290E00E949D265A94F6CFF7018681BF
:10481000978126C08FEF9FEF23C0B70180E290E021
:104820000E949D265A945110F8CFD8CF512CB70131
:10483000802F90E00E949D26D3CF06E710E0D5CFD1
:1048400091108052B70190E00E949D260F5F1F4F8C
:10485000CFCF23E0251510F483E0BDCF512CC0CF7E
:104860006096E2E10C947E25E89409C097FB3EF443
:1048700090958095709561957F4F8F4F9F4F9923AD
:10488000A9F0F92F96E9BB279395F695879577952B
:104890006795B795F111F8CFFAF4BB0F11F460FFEB
:1048A0001BC06F5F7F4F8F4F9F4F16C0882311F043
:1048B00096E911C0772321F09EE8872F762F05C057
:1048C000662371F096E8862F70E060E02AF09A95F2
:1048D000660F771F881FDAF7880F9695879597F9E7
:1048E00008950E9484240C94F5240E94E72438F053
:1048F0000E94EE2420F0952311F00C94DE240C94F9
:10490000E42411240C9429250E94062570F3959F18
:10491000C1F3950F50E0551F629FF001729FBB27B6
:10492000F00DB11D639FAA27F00DB11DAA1F649F52
:104930006627B00DA11D661F829F2227B00DA11D05
:10494000621F739FB00DA11D621F839FA00D611D8B
:10495000221F749F3327A00D611D231F849F600DAC
:10496000211D822F762F6A2F11249F5750409AF0D5
:10497000F1F088234AF0EE0FFF1FBB1F661F771F61
:10498000881F91505040A9F79E3F510580F00C942C
:10499000DE240C9429255F3FE4F3983ED4F38695FA
:1049A00077956795B795F795E7959F5FC1F7FE2BCC
:1049B000880F911D9695879597F9089597F99F67A8
:1049C00080E870E060E008959FEF80EC0895002497
:1049D0000A941616170618060906089500240A9464
:1049E00012161306140605060895092E0394000CEA
:1049F00011F4882352F0BB0F40F4BF2B11F460FF79
:104A000004C06F5F7F4F8F4F9F4F089557FD9058A1
:104A1000440F551F59F05F3F71F04795880F97FB82
:104A2000991F61F09F3F79F087950895121613063C
:104A30001406551FF2CF4695F1DF08C0161617066B
:104A40001806991FF1CF86957105610508940895A0
:104A5000E894BB2766277727CB0197F90895A1E251
:104A60001A2EAA1BBB1BFD010DC0AA1FBB1FEE1FE8
:104A7000FF1FA217B307E407F50720F0A21BB30B33
:104A8000E40BF50B661F771F881F991F1A9469F7AF
:104A900060957095809590959B01AC01BD01CF010B
:104AA0000895EE0FFF1F0590F491E02D09940E94E8
:104AB0009925A59F900DB49F900DA49F800D911DE9
:104AC000112408952F923F924F925F926F927F929E
:104AD0008F929F92AF92BF92CF92DF92EF92FF920E
:104AE0000F931F93CF93DF93CDB7DEB7CA1BDB0BBA
:104AF0000FB6F894DEBF0FBECDBF09942A8839885F
:104B000048885F846E847D848C849B84AA84B98465
:104B1000C884DF80EE80FD800C811B81AA81B98171
:104B2000CE0FD11D0FB6F894DEBF0FBECDBFED0185
:104B30000895A29FB001B39FC001A39F700D811D76
:104B40001124911DB29F700D811D1124911D089596
:104B5000283008F027E03327DA01990F311D87FD4F
:104B6000916000966105710539F432602E5F3D93C6
:104B700030E32A95E1F708959F3F30F080387105C2
:104B8000610509F03C5F3C5F3D93913008F080681F
:104B9000911DDF93CF931F930F93FF92EF92192FE5
:104BA000987F9695E92F96959695E90FFF27EC52F9
:104BB000FF4F99273327EE24FF24A701E701059033
:104BC0000894079428F4360FE71EF81E491F511D5C
:104BD000660F771F881F991F0694A1F70590079409
:104BE00028F4E70EF81E491F561FC11D770F881FB6
:104BF000991F661F0694A1F70590079428F4F80EF4
:104C0000491F561FC71FD11D880F991F661F771F89
:104C10000694A1F70590079420F4490F561FC71F6B
:104C2000D81F990F661F771F881F0694A9F78491D4
:104C30001095177041F0D695C79557954795F794FD
:104C4000E7941A95C1F7EAE7F0E06894159015919A
:104C500035916591959105907FE27395E118F10A80
:104C6000430B560BC90BD009C0F7E10CF11E431FD3
:104C7000561FC91FD01D7EF4703311F48A95E6CFFC
:104C8000E894015030F0080F0AF40027021708F4E6
:104C9000202F2395022F7A3328F079E37D932A95EC
:104CA000E9F710C07D932A9589F606949795679544
:104CB000379517951794E118F10A430B560BC90B5A
:104CC000D00998F023957E9173957A3308F070E3BC
:104CD0007C932013B8F77E9170617D9330F08395BB
:104CE00071E37D9370E32A95E1F71124EF90FF9033
:104CF0000F911F91CF91DF91992787FD909508958E
:104D0000FC010590615070400110D8F78095909596
:104D10008E0F9F1F0895FB01DC0101900D92002072
:104D2000E1F70895FC016150704001900110D8F73F
:104D3000809590958E0F9F1F08950F931F93CF938B
:104D4000DF93FB01238121FD03C08FEF9FEF2CC078
:104D500022FF16C0468157812481358142175307AF
:104D600044F4A081B1819D012F5F3F4F31832083A7
:104D70008C93268137812F5F3F4F3783268314C062
:104D80008B01EC01FB010084F185E02D0995892B55
:104D9000E1F6D80116968D919C911797019617967A
:104DA0009C938E931697CE01DF91CF911F910F9117
:104DB0000895A0E0B0E0EFEDF6E20C947225AE01AC
:104DC0004B5F5F4FFA0161917191AF0180913205A4
:104DD000909133050E94B720E2E00C948E25AEE05E
:104DE000B0E0E5EFF6E20C9470250D891E8986E0AF
:104DF0008C831A8309838FEF9FE79E838D83AE0197
:104E0000475E5F4F6F89788DCE0101960E94B72073
:104E1000EF81F885E00FF11F10822E96E4E00C94EC
:104E20008C25FA01AA27283051F1203181F1E8942C
:104E30006F936E7F6E5F7F4F8F4F9F4FAF4FB1E08D
:104E40003ED0B4E03CD0670F781F891F9A1FA11D88
:104E5000680F791F8A1F911DA11D6A0F711D811D89
:104E6000911DA11D20D009F468943F912AE0269F4E
:104E700011243019305D3193DEF6CF010895462FAD
:104E80004770405D4193B3E00FD0C9F7F6CF462F8E
:104E90004F70405D4A3318F0495D31FD40524193F7
:104EA00002D0A9F7EACFB4E0A695979587957795B4
:104EB0006795BA95C9F700976105710508959B013B
:104EC000AC010A2E06945795479537952795BA95C4
:104ED000C9F7620F731F841F951FA01D0895F894D2
:024EE000FFCF02
:104EE2002E74787400646174610000000002000096
:104EF20000004B02000000007A00000000020000E7
:104F02000000EE020000000001809A90B68EDE8F53
:104F1200809DD38A8AD78D8E8F909191E2999595B3
:104F22009797999A9B9B9D9EACB5D6E0E9A4A4A6BF
:104F3200A6A8A8AA8DACB8AEAFB0B1B2B3B4B5B69C
:104F4200B7B8B9BABBBCBDBDBFC0C1C2C3C4C5C678
:104F5200C6C8C9CACBCCCDCECFD1D1D2D3D2D5D669
:104F6200D7B7D9DADBDCDDDEDFE0E1E2E3E3D5E689
:104F7200E6E8E9E8EBEDEDDDEFF0F1F2F3F4F5F65A
:104F8200F7F8F9FAEBFCFCFEFF53544F50210025D1
:104F92007300543D25352E316620DF4300256C64B5
:104FA20020092025352E3166200D0A004572726FC8
:104FB200722077726974696E672066696C65004356
:104FC200616E6E6F7420777269746520636F6D70A5
:104FD2006C6574652064617461004C6F676765720B
:104FE2002074656D70006D6F756E74206572726FDE
:104FF20072006D6F756E7465640025640066696C7D
:10500200652063726561746564004572726F722017
:1050120063726561742E2066696C65004F4B204691
:10502200696C6520636C6F736564000D0A4F4B0DEC
:105032000A000D0A4552524F520D0A0025670D0A09
:1050420000464154333220202000222A2B2C3A3BA6
:0A5052003C3D3E3F5B5D7C7F0000AB
:00000001FF
