:100000000C942A000C943C000C943C000C943C0092
:100010000C943C000C943C000C943C000C943E006E
:100020000C943C000C943C000C943C000C943C0060
:100030000C943C000C943C000C943C000C943C0050
:100040000C943C000C943C000C943C000C943C0040
:100050000C943C0011241FBECFE5D8E0DEBFCDBF1D
:1000600020E0A0E6B0E001C01D92A136B207E1F7A2
:100070000E9454000C946C000C9400001F920F928C
:100080000FB60F9211248F939F93869906C090917B
:10009000600081E08927809360009F918F910F908D
:1000A0000FBE0F901F90189581E084BB85BB11BADD
:1000B00080E482BB1FBC80E189BF87EA91E69BBDDB
:1000C0008ABD8BE08EBD789480916000882311F00A
:0C00D000A898FACFA89AF8CFF894FFCFB8
:00000001FF
