:100000000C94AB000C94C8000C94C8000C94C8006D
:100010000C94C8000C94C8000C94C8000C94C80040
:100020000C94C8000C94C8000C94C8000C94C80030
:100030000C94C8000C941F020C945B020C94C80032
:100040000C94C8000C94C8000C94C8000C94C80010
:100050000C94C8006E616E00696E660000407A10F4
:10006000F35A00A0724E18090010A5D4E80000E869
:100070007648170000E40B54020000CA9A3B0000C7
:1000800000E1F505000080969800000040420F0056
:100090000000A08601000000102700000000E80317
:1000A000000000006400000000000A0000000000E2
:1000B0000100000000002C76D888DC674F0823DFA1
:1000C000C1DFAE59E1B1B796E5E3E453C63AE65174
:1000D000997696E8E6C28426EB898C9B62ED407C9B
:1000E0006FFCEFBC9C9F40F2BAA56FA5F490055A37
:1000F0002AF75C936B6CF9676DC11BFCE0E40D475C
:10010000FEF520E6B500D0ED902E0300943577057E
:100110000080841E080000204E0A000000C80C3336
:100120003333330F986E12831141EF8D2114893BC5
:10013000E65516CFFEE6DB18D1844B381BF77C1D45
:10014000901DA4BBE424203284725E228100C9F198
:1001500024ECA1E53D2711241FBECFE5D8E0DEBF8A
:10016000CDBF10E0A0E6B0E0E6E4F1E102C005900A
:100170000D92A63BB107D9F721E0A6EBB0E001C094
:100180001D92A136B207E1F70E94BE020C94A108AD
:100190000C940000DA98DB9A9BB39F70282F207F85
:1001A000922B9BBB35E03A95F1F70000DB98EFE826
:1001B000F1E03197F1F700C00000DB9A2BB32F700C
:1001C000F0E18F9FC0011124822B8BBB35E03A9563
:1001D000F1F70000DB988FE891E00197F1F700C09C
:1001E0000000089581E00E94CA008FE39FE101971B
:1001F000F1F700C0000008958FEF8ABB1BBA2FEF04
:1002000080E792E0215080409040E1F700C000007C
:1002100080E690E090935E0180935D01DA9893E030
:10022000DB9A8BB38F7080638BBBE5E0EA95F1F7C7
:100230000000DB98EFE1FEE43197F1F700C0000029
:10024000915071F7DB9A8BB38F7080628BBBF5E0B6
:10025000FA95F1F70000DB988FE891E00197F1F74C
:1002600000C0000088E20E94CA008CE00E94CA0020
:1002700086E00E94CA000C94F200DA9ADB9A9BB3E3
:100280009F70282F207F922B9BBB35E03A95F1F78A
:100290000000DB98EFE8F1E03197F1F700C00000D3
:1002A000DB9A2BB32F70F0E18F9FC0011124822BBA
:1002B0008BBB35E03A95F1F70000DB988FE891E0D1
:1002C0000197F1F700C0000008950E943D0180E011
:1002D00090E0089590E4699F800D112480680C944B
:1002E000CA000F931F93CF93DF938A010E946A0184
:1002F000E8018991882319F00E943D01FACFDF912E
:10030000CF911F910F910895CF93DF93FC018491BA
:10031000EF012196882321F00E943D01FE01F7CFD5
:10032000DF91CF910895BB9A8FE797E00197F1F79E
:1003300000C00000BB98E7E1F1E03197F1F700C0A1
:10034000000086B3E7E6F6E03197F1F700C0000061
:100350008870089528E030E0BB9A80FF0BC095E5D7
:100360009A95F1F70000BB98EFEFF0E03197F1F7C5
:1003700000C00AC0EFEEF0E03197F1F700C00000D6
:10038000BB98F5E3FA95F1F7000086952150310905
:1003900019F7089528E030E080E08695BB9A90E256
:1003A0009A95F1F7BB98E0E3EA95F1F7B399806885
:1003B000EBEDF0E03197F1F700C00000215031097A
:1003C00061F708950E9493010C949301CF930E94CA
:1003D0009301C82F811107C08CEC0E94AA0184E40C
:1003E0000E94AA0101C0C1E08C2FCF910895CF9344
:1003F000DF930E9493018CEC0E94AA018EEB0E9475
:10040000AA010E94CA01C82FD0E00E94CA019E0121
:10041000382BC901DF91CF910895CF93C82F8091D8
:10042000B6008111FCCFCA3019F48DE00E940D0294
:100430005D9BFECFCCB980E090E0CF9108951F92F4
:100440000F920FB60F9211248F939F93EF93FF9308
:100450008CB190915A019F3410F010925A019091F2
:10046000B70091111FC08D3011F08A3081F4809156
:100470005A018823B9F0E0915A01F0E0E85FFE4F9D
:10048000108210925A0181E08093B7000BC0E09176
:100490005A01F0E0E85FFE4F808380915A018F5F40
:1004A00080935A01FF91EF919F918F910F900FBE12
:1004B0000F901F9018951F920F920FB60F92112454
:1004C0008F939F93EF93FF93E0915801F09159011F
:1004D0008081882349F0CF01019690935901809340
:1004E000580180818CB903C055981092B600FF91D5
:1004F000EF919F918F910F900FBE0F901F901895C5
:1005000010BC19B888E98AB986E880BD08952091A1
:10051000B6002111FCCF21E02093B6009093590141
:1005200080935801559A089587EA90E00C948702C9
:100530009F938F937F936F9381EB90E09F938F9323
:1005400088EB90E09F938F930E9421088DB79EB710
:1005500008960FB6F8949EBF0FBE8DBF88EB90E053
:100560000C94870280E5E8E0F1E0DF011D928A95B6
:10057000E9F710925A011092B7000895CF93DF93D4
:10058000CDB7DEB760970FB6F894DEBF0FBECDBF14
:100590000E94FC000E94E2018FB582608FBD8EB583
:1005A00088618EBD8FB580688FBD8EB582608EBD2F
:1005B0000E94800278942FEF87EA91E621508040D4
:1005C0009040E1F700C0000031E7C32E32E0D32EA7
:1005D00003E810E0DE0111967D0140E5B42E809124
:1005E000B7008823E1F344E050E06EE770E088E074
:1005F00091E00E94CC07892B41F50E94E601B39B54
:10060000FECF0E94F701AC014F7055274C9D900121
:100610004D9D300D5C9D300D11243F932F9324E0B0
:10062000959587952A95E1F79F938F931F930F9345
:10063000FF92EF920E942108C7010E9487020FB625
:10064000F894DEBF0FBECDBF04C083E990E00E94E6
:1006500087021092B70010925A01E8E0F1E0DF0142
:100660002B2D1D922A95E9F7BACFA0E1B0E0EBE37C
:10067000F3E00C94B2067C011B016A01FC011782B5
:100680001682838181FF44C39E012F5F3F4F390152
:10069000F7019381F10193FD859193FF81911F01F2
:1006A000882309F431C3853239F493FD859193FF92
:1006B00081911F01853239F4B70190E00E94E5076E
:1006C00056016501E5CF10E0512C912CFFE1F915A1
:1006D000D8F08B3279F038F4803279F08332A1F49B
:1006E000F92DF0612EC08D3261F0803369F4292D2F
:1006F00021602DC0392D3260932E892D8460982E73
:100700002AC0E92DE86015C097FC2DC020ED280F08
:100710002A3088F496FE06C03AE0139F200D11247B
:10072000122F19C08AE0589E200D1124522EE92D57
:10073000E0629E2E10C08E3231F496FCE5C2F92D97
:10074000F0649F2E08C08C3621F4292D2068922E4B
:1007500002C0883641F4F10193FD859193FF8191A8
:100760001F018111B3CF9BEB980F933020F4992D8B
:100770009061805E07C09BE9980F933008F066C1D6
:10078000992D9F7E96FF16E09F73992E853619F45A
:100790009064992E08C0863621F4392F3068932E44
:1007A00002C01111115097FE07C01C3350F44424AD
:1007B0004394410E27E00BC0183038F027E017E0D3
:1007C00005C027E09CE3492E02C0212F412C560191
:1007D00084E0A80EB11CF601608171818281938151
:1007E000042DA3010E94E9066C01F981FC87F0FF4A
:1007F00002C0F3FF06C091FC06C092FE06C000E2F4
:1008000005C00DE203C00BE201C000E08C858C70D6
:1008100019F001115AC29BC297FE10C04C0CFC8506
:10082000F4FF04C08A81813309F44A94141474F5E6
:1008300028E0241578F588E0482E2CC096FC2AC0C4
:10084000812F90E08C159D059CF03CEFC3163FEF87
:10085000D30674F0892D8068982E0AC0E2E0F0E09B
:10086000EC0FFD1FE10FF11D8081803319F4115051
:100870001111F4CF97FE0EC044244394410E812FF2
:1008800090E0C816D9062CF41C1904C044244394E3
:1008900001C010E097FE06C01C141D0434F4C6010C
:1008A000019605C085E090E002C081E090E0011172
:1008B0000196112331F0212F30E02F5F3F4F820F3F
:1008C000931F252D30E08217930714F4581A01C0A6
:1008D000512C892D897049F4552039F0B70180E2F7
:1008E00090E00E94E5075A94F7CF002329F0B70162
:1008F000802F90E00E94E50793FC09C0552039F055
:10090000B70180E390E00E94E5075A94F7CF97FE85
:100910004CC04601D7FE02C0812C912CC60188191B
:100920009909F301E80FF91FFE87ED879601241955
:100930003109388B2F87012F10E01195019511098E
:100940003FEF8316930629F4B7018EE290E00E94F0
:10095000E507C814D9044CF08F8598898815990546
:1009600024F4ED85FE85818101C080E3F1E08F1ADA
:1009700091082D853E852F5F3F4F3E872D8780163E
:1009800091062CF0B70190E00E94E507D9CFC8147A
:10099000D90441F49A81963320F4953319F43C85B7
:1009A00034FF81E3B70190E04EC08A81813319F0B2
:1009B0009C859F7E9C87B70190E00E94E5071111FE
:1009C00005C094FC18C085E690E017C0B7018EE220
:1009D00090E00E94E5071E5F82E001E0080FF3014E
:1009E000E80FF11D8081B70190E00E94E507802F9C
:1009F0000113F3CFE6CF85E490E0B7010E94E5074D
:100A0000D7FC06C0C114D10441F4EC85E4FF05C055
:100A1000D194C194D1088DE201C08BE2B70190E07E
:100A20000E94E50780E32AE0C216D1042CF08F5F14
:100A3000FAE0CF1AD108F7CFB70190E00E94E5079E
:100A4000B701C601C0960E94E50754C1833631F054
:100A5000833779F0833509F056C020C0560132E063
:100A6000A30EB11CF6018081898301E010E06301CF
:100A700012C05601F2E0AF0EB11CF601C080D18069
:100A800096FE03C0612F70E002C06FEF7FEFC601DA
:100A90000E94DA078C01F92DFF7714C0560122E07D
:100AA000A20EB11CF601C080D18096FE03C0612F5A
:100AB00070E002C06FEF7FEFC6010E94C1078C019A
:100AC000F92DF0689F2EF3FD1AC0852D90E00817D0
:100AD0001907A8F4B70180E290E00E94E5075A9454
:100AE000F4CFF60197FC859197FE81916F01B701D4
:100AF00090E00E94E50751105A9401501109011528
:100B0000110579F7F7C0843611F0893661F5560181
:100B100097FE09C024E0A20EB11CF601608171812C
:100B2000828193810AC0F2E0AF0EB11CF6016081B0
:100B30007181072E000C880B990BF92DFF769F2EE3
:100B400097FF09C090958095709561957F4F8F4F65
:100B50009F4FF0689F2E2AE030E0A3010E944308D7
:100B6000C82EC6183FC0092D853721F40F7E2AE014
:100B700030E01DC0097F8F3691F018F4883559F0A8
:100B8000C3C0803719F0883711F0BEC0006104FF80
:100B900009C0046007C094FE08C0066006C028E0D3
:100BA00030E005C020E130E002C020E132E0560133
:100BB00007FF09C084E0A80EB11CF60160817181B5
:100BC0008281938108C0F2E0AF0EB11CF601608112
:100BD000718180E090E0A3010E944308C82EC618EE
:100BE0000F77902E96FE0BC0092D0E7FC11650F484
:100BF00094FE0AC092FC08C0092D0E7E05C0DC2CB4
:100C0000092D03C0DC2C01C0D12E04FF0DC0FE0154
:100C1000EC0DF11D8081803311F4097E09C002FFC3
:100C200006C0D394D39404C0802F867809F0D3945F
:100C300003FD11C000FF06C01C2DD51480F4150D56
:100C40001D190DC0D51458F4B70180E290E00E9440
:100C5000E507D394F7CFD51410F45D1801C0512CDB
:100C600004FF10C0B70180E390E00E94E50702FF97
:100C700017C001FD03C088E790E002C088E590E05E
:100C8000B7010CC0802F867859F001FF02C08BE2BB
:100C900001C080E207FD8DE2B70190E00E94E50708
:100CA000C11638F4B70180E390E00E94E5071150C7
:100CB000F7CFCA94F301EC0DF11D8081B70190E0EC
:100CC0000E94E507C110F5CF15C0F4E0F51560F5F9
:100CD00084E0581A93FE1FC0011127C02C8523FF02
:100CE0002AC004E510E0392D3071932EF80184916B
:100CF000811124C0552009F4E4CCB70180E290E0D2
:100D00000E94E5075A94F6CFF7018681978126C0A5
:100D10008FEF9FEF23C0B70180E290E00E94E507CC
:100D20005A945110F8CFD8CF512CB701802F90E0B2
:100D30000E94E507D3CF08E510E0D5CF911080528F
:100D4000B70190E00E94E5070F5F1F4FCFCF23E070
:100D5000251510F483E0BDCF512CC0CF6096E2E1A1
:100D60000C94CE062F923F924F925F926F927F9299
:100D70008F929F92AF92BF92CF92DF92EF92FF92AB
:100D80000F931F93CF93DF93CDB7DEB7CA1BDB0B57
:100D90000FB6F894DEBF0FBECDBF09942A883988FC
:100DA00048885F846E847D848C849B84AA84B98403
:100DB000C884DF80EE80FD800C811B81AA81B9810F
:100DC000CE0FD11D0FB6F894DEBF0FBECDBFED0123
:100DD0000895283008F027E03327DA01990F311DF4
:100DE00087FD916000966105710539F432602E5FD0
:100DF0003D9330E32A95E1F708959F3F30F0803826
:100E00007105610509F03C5F3C5F3D93913008F04E
:100E10008068911DDF93CF931F930F93FF92EF9202
:100E2000192F987F9695E92F96959695E90FFF27AC
:100E3000EA54FF4F99273327EE24FF24A701E70147
:100E400005900894079428F4360FE71EF81E491FF2
:100E5000511D660F771F881F991F0694A1F70590F3
:100E6000079428F4E70EF81E491F561FC11D770F7F
:100E7000881F991F661F0694A1F70590079428F410
:100E8000F80E491F561FC71FD11D880F991F661FD7
:100E9000771F0694A1F70590079420F4490F561F79
:100EA000C71FD81F990F661F771F881F0694A9F7C1
:100EB00084911095177041F0D695C7955795479531
:100EC000F794E7941A95C1F7ECE5F0E06894159073
:100ED000159135916591959105907FE27395E11893
:100EE000F10A430B560BC90BD009C0F7E10CF11EF8
:100EF000431F561FC91FD01D7EF4703311F48A950D
:100F0000E6CFE894015030F0080F0AF400270217EA
:100F100008F4202F2395022F7A3328F079E37D936C
:100F20002A95E9F710C07D932A9589F6069497953E
:100F30006795379517951794E118F10A430B560BEF
:100F4000C90BD00998F023957E9173957A3308F0F8
:100F500070E37C932013B8F77E9170617D9330F03D
:100F6000839571E37D9370E32A95E1F71124EF9067
:100F7000FF900F911F91CF91DF91992787FD909559
:100F80000895FC010590615070400110D8F78095DC
:100F900090958E0F9F1F0895FB01DC01415050403A
:100FA00030F08D910190801919F40020B9F7881B59
:100FB000990B0895FC016150704001900110D8F721
:100FC000809590958E0F9F1F08950F931F93CF9339
:100FD000DF93FB01238121FD03C08FEF9FEF2CC026
:100FE00022FF16C04681578124813581421753075D
:100FF00044F4A081B1819D012F5F3F4F3183208355
:101000008C93268137812F5F3F4F3783268314C00F
:101010008B01EC01FB010084F185E02D0995892B02
:10102000E1F6D80116968D919C9117970196179627
:101030009C938E931697CE01DF91CF911F910F91C4
:101040000895AEE0B0E0E7E2F8E00C94C0060D8948
:101050001E8986E08C831A8309838FEF9FE79E8326
:101060008D83AE01475E5F4F6F89788DCE0101960B
:101070000E943503EF81F885E00FF11F10822E9654
:10108000E4E00C94DC06FA01AA27283051F1203163
:1010900081F1E8946F936E7F6E5F7F4F8F4F9F4F0C
:1010A000AF4FB1E03ED0B4E03CD0670F781F891F4E
:1010B0009A1FA11D680F791F8A1F911DA11D6A0F1C
:1010C000711D811D911DA11D20D009F468943F91CF
:1010D0002AE0269F11243019305D3193DEF6CF01CE
:1010E0000895462F4770405D4193B3E00FD0C9F794
:1010F000F6CF462F4F70405D4A3318F0495D31FD01
:101100004052419302D0A9F7EACFB4E0A695979553
:10111000879577956795BA95C9F700976105710529
:1011200008959B01AC010A2E069457954795379573
:101130002795BA95C9F7620F731F841F951FA01DCD
:061140000895F894FFCFB2
:1011460000000002000000006501000000007000C1
:1011560000000002000000000D020000000074659F
:101166006D70000D0A543D2533642E2530346420FD
:10117600DF43000D0A556E6B6E6F776E20636F6DE1
:101186006D616E640D0A000D0A4552524F520D0AEA
:061196000025670D0A00B0
:00000001FF
