:100000000C9448000C9465000C9465000C946500F9
:100010000C9465000C9465000C9465000C946500CC
:100020000C9465000C9465000C9465000C946500BC
:100030000C9465000C9479000C94B5000C94650048
:100040000C9465000C9465000C9465000C9465009C
:100050000C9465004E414E494E495459494E46CD87
:10006000CCCC3D0AD7233C17B7D13877CC2B32956F
:1000700095E6241FB14F0A000020410000C842004D
:10008000401C4620BCBE4CCA1B0E5AAEC59D740017
:1000900011241FBECFE5D8E0DEBFCDBF10E0A0E643
:1000A000B0E0E6EFF0E102C005900D92A63AB1078C
:1000B000D9F721E0A6EAB0E001C01D92AD34B20745
:1000C000E1F70E9418010C9479080C940000CF937A
:1000D000C82F8091A6008111FCCFCA3019F48DE0A1
:1000E0000E9467005D9BFECFCCB980E090E0CF918D
:1000F00008951F920F920FB60F9211248F939F9322
:10010000EF93FF938CB190914A019F3410F01092BD
:100110004A019091A70091111FC08D3011F08A30D3
:1001200081F480914A018823B9F0E0914A01F0E01E
:10013000E850FF4F108210924A0181E08093A7009F
:100140000BC0E0914A01F0E0E850FF4F80838091BE
:100150004A018F5F80934A01FF91EF919F918F91A8
:100160000F900FBE0F901F9018951F920F920FB611
:100170000F9211248F939F93EF93FF93E091480187
:10018000F09149018081882349F0CF010196909335
:1001900049018093480180818CB903C05598109221
:1001A000A600FF91EF919F918F910F900FBE0F903E
:1001B0001F90189510BC19B888E98AB986E880BDE7
:1001C00008952091A6002111FCCF21E02093A600E4
:1001D0009093490180934801559A089586E990E0EB
:1001E0000C94E1009F938F937F936F9380EA90E04C
:1001F0009F938F9388EA90E09F938F930E94C6030A
:100200008DB79EB708960FB6F8949EBF0FBE8DBFF0
:1002100088EA90E00C94E10080E5E8EFF0E0DF018F
:100220001D928A95E9F710924A011092A70008954D
:10023000CF93DF93CDB7DEB760970FB6F894DEBFEC
:100240000FBECDBF8D9A8FB582608FBD8EB5886190
:100250008EBD8FB580688FBD8EB582608EBD8FE3F9
:100260009CE997BD86BD0E94DA00789487EE93E002
:100270009BBD8ABD2FEF87EA91E6215080409040D8
:10028000E1F700C0000006E710E0DE0111965D0115
:1002900020E5922E8091A7008823E1F345E050E00D
:1002A00060E770E088EF90E00E94B803892B09F0C6
:1002B00051C08EEF90E00E94B4036B017C0120E0FE
:1002C00030E044EB52E40E94420318168CF020E028
:1002D00030E044EB52ECC701B6010E94270287FFD1
:1002E0000DC0C12CD12C94EBE92E92ECF92E06C056
:1002F000C12CD12C84EBE82E82E4F82E20E030E0F3
:100300004AE755E4C701B6010E94470320E030E008
:1003100044EB52E40E942C0220E030E74BE355E42A
:100320000E94BB010E949E026B017C01DF926F93D1
:100330001F930F93BF92AF920E94C603C5010E9404
:10034000E100DBBCCABC0F900F900F900F900F9094
:100350000F9004C082E890E00E94E1001092A70094
:1003600010924A01E8EFF0E0DF01292D1D922A9555
:10037000E9F790CF5058BB27AA270E94D2010C94CE
:1003800008030E94FA0238F00E94010320F039F4B9
:100390009F3F19F426F40C94F7020EF4E095E7FB66
:1003A0000C94F102E92F0E94190358F3BA1762075F
:1003B00073078407950720F079F4A6F50C943B03A6
:1003C0000EF4E0950B2EBA2FA02D0B01B901900170
:1003D0000C01CA01A0011124FF27591B99F0593FB4
:1003E00050F4503E68F11A16F040A22F232F342FFC
:1003F0004427585FF3CF469537952795A795F0404A
:100400005395C9F77EF41F16BA0B620B730B840B5E
:10041000BAF09150A1F0FF0FBB1F661F771F881F16
:10042000C2F70EC0BA0F621F731F841F48F487956E
:1004300077956795B795F7959E3F08F0B0CF939560
:10044000880F08F09927EE0F9795879508950E94D9
:10045000CD0208F481E008950E9440020C94080344
:100460000E94010358F00E94FA0240F029F45F3F15
:1004700029F00C94F10251110C943C030C94F702F6
:100480000E94190368F39923B1F3552391F3951B47
:10049000550BBB27AA2762177307840738F09F5FA5
:1004A0005F4F220F331F441FAA1FA9F335D00E2E12
:1004B0003AF0E0E832D091505040E695001CCAF77F
:1004C0002BD0FE2F29D0660F771F881FBB1F261742
:1004D00037074807AB07B0E809F0BB0B802DBF0119
:1004E000FF2793585F4F3AF09E3F510578F00C94E8
:1004F000F1020C943C035F3FE4F3983ED4F38695FD
:1005000077956795B795F7959F5FC9F7880F911D08
:100510009695879597F90895E1E0660F771F881FF4
:10052000BB1F621773078407BA0720F0621B730BA7
:10053000840BBA0BEE1F88F7E09508950E94210303
:1005400088F09F5798F0B92F9927B751B0F0E1F094
:10055000660F771F881F991F1AF0BA95C9F714C044
:10056000B13091F00E943B03B1E008950C943B033D
:10057000672F782F8827B85F39F0B93FCCF386957D
:1005800077956795B395D9F73EF4909580957095DA
:1005900061957F4F8F4F9F4F0895990F0008550F1A
:1005A000AA0BE0E8FEEF16161706E807F907C0F0F9
:1005B00012161306E407F50798F0621B730B840B01
:1005C000950B39F40A2661F0232B242B252B21F4DB
:1005D00008950A2609F4A140A6958FEF811D811D7B
:1005E000089597F99F6780E870E060E008959FEFB5
:1005F00080EC089500240A941616170618060906BA
:10060000089500240A941216130614060506089588
:10061000092E0394000C11F4882352F0BB0F40F410
:10062000BF2B11F460FF04C06F5F7F4F8F4F9F4F50
:10063000089557FD9058440F551F59F05F3F71F0D2
:100640004795880F97FB991F61F09F3F79F0879539
:100650000895121613061406551FF2CF4695F1DFC2
:1006600008C0161617061806991FF1CF8695710552
:10067000610508940895E894BB2766277727CB0186
:1006800097F908950E94CD0208F48FEF08950E9413
:100690005A030C9408030E94FA0238F00E940103E6
:1006A00020F0952311F00C94F1020C94F702112420
:1006B0000C943C030E94190370F3959FC1F3950FAE
:1006C00050E0551F629FF001729FBB27F00DB11DD6
:1006D000639FAA27F00DB11DAA1F649F6627B00D66
:1006E000A11D661F829F2227B00DA11D621F739F4F
:1006F000B00DA11D621F839FA00D611D221F749F5D
:100700003327A00D611D231F849F600D211D822FA3
:10071000762F6A2F11249F5750409AF0F1F08823CA
:100720004AF0EE0FFF1FBB1F661F771F881F9150F7
:100730005040A9F79E3F510580F00C94F1020C94B3
:100740003C035F3FE4F3983ED4F386957795679535
:10075000B795F795E7959F5FC1F7FE2B880F911D21
:100760009695879597F90895662777270C94C9057C
:10077000FB01DC014150504030F08D910190801917
:1007800019F40020B9F7881B990B0895AEE0B0E08A
:10079000ECECF3E00C9441080D891E8986E08C8313
:1007A0001A8309838FEF9FE79E838D83AE01475E97
:1007B0005F4F6F89788DCE0101960E94E803EF812B
:1007C000F885E00FF11F10822E96E4E00C945D088E
:1007D000ABE0B0E0EEEEF3E00C9433086C017B018B
:1007E0008A01FC0117821682838181FFCCC1CE0170
:1007F00001963C01F6019381F70193FD859193FFEA
:1008000081917F01882309F4BAC1853239F493FDBF
:10081000859193FF81917F01853229F4B60190E0A3
:100820000E944E07E7CF912C212C312CFFE1F315CC
:10083000D8F08B3279F038F4803279F08332A1F439
:10084000232D20611DC08D3261F0803369F4232D8A
:10085000216016C0832D8260382EE32DE4603E2E89
:100860002AC0F32DF8601DC037FC2DC020ED280FE5
:100870002A3040F08E32B9F436FC81C1232D206439
:10088000322E19C036FE06C08AE0989E200D112433
:10089000922E11C0EAE02E9E200D1124222EF32D5F
:1008A000F0623F2E08C08C3621F4832D8068382EEC
:1008B00002C0883641F4F70193FD859193FF819141
:1008C0007F018111B3CF982F9F7D9554933028F4E9
:1008D0000C5F1F4F9FE399830DC0833631F0833740
:1008E00071F0833509F059C021C0F80180818983F6
:1008F0000E5F1F4F88248394912C530113C028014D
:10090000F2E04F0E511CF801A080B18036FE03C00A
:10091000692D70E002C06FEF7FEFC5010E944307B1
:100920004C018201F32DFF773F2E16C0280122E0F3
:10093000420E511CF801A080B18036FE03C0692D23
:1009400070E002C06FEF7FEFC5010E9438074C01D5
:10095000F32DF0683F2E820133FC1BC0822D90E006
:1009600088169906B0F4B60180E290E00E944E0726
:100970002A94F4CFF50137FC859137FE81915F0110
:10098000B60190E00E944E0721102A9421E0821ABD
:1009900091088114910471F7E8C0843611F089360A
:1009A00041F5F80137FE07C0608171818281938132
:1009B0000C5F1F4F08C060817181072E000C880BEF
:1009C000990B0E5F1F4FF32DFF763F2E97FF09C047
:1009D00090958095709561957F4F8F4F9F4FF068F0
:1009E0003F2E2AE030E0A3010E948A07882E861855
:1009F00045C0853731F4232D2F7EB22E2AE030E01A
:100A000025C0932D997FB92E8F36C1F018F4883503
:100A100079F0B5C0803719F0883721F0B0C0E92FE0
:100A2000E061BE2EB4FE0DC0FB2DF460BF2E09C0E8
:100A300034FE0AC0292F2660B22E06C028E030E01E
:100A400005C020E130E002C020E132E0F801B7FE4D
:100A500007C060817181828193810C5F1F4F06C046
:100A60006081718180E090E00E5F1F4FA3010E94C2
:100A70008A07882E8618FB2DFF773F2E36FE0DC085
:100A8000232D2E7FA22E891458F434FE0BC032FC85
:100A900009C0832D8E7EA82E05C0B82CA32C03C0C0
:100AA000B82C01C0B92CA4FE0FC0FE01E80DF11D49
:100AB0008081803321F49A2D997EA92E09C0A2FE4F
:100AC00006C0B394B39404C08A2D867809F0B39419
:100AD000A3FC11C0A0FE06C0B21488F4280C922C0E
:100AE0009B180EC0B21460F4B60180E290E00E9440
:100AF0004E07B394F7CFB21418F42B1802C0982CF9
:100B0000212CA4FE10C0B60180E390E00E944E07A5
:100B1000A2FE17C0A1FC03C088E790E002C088E5F0
:100B200090E0B6010CC08A2D867859F0A1FE02C073
:100B30008BE201C080E2A7FC8DE2B60190E00E944A
:100B40004E07891438F4B60180E390E00E944E0706
:100B50009A94F7CF8A94F301E80DF11D8081B601D4
:100B600090E00E944E078110F5CF222009F442CE7A
:100B7000B60180E290E00E944E072A94F6CFF6017B
:100B80008681978102C08FEF9FEF2B96E2E10C9454
:100B90004F08A0E0B0E0EFECF5E00C943908EC0170
:100BA0006B016115710519F0FB01918380837E0152
:100BB000FFEFEF1AFF0A0881802F90E00E941707CD
:100BC000892B11F0E701F3CF0D3239F47E0182E079
:100BD000E80EF11C098111E008C00B3229F47E01F6
:100BE00092E0E90EF11C098110E0E701219743E052
:100BF00050E06CE570E0CE010E942007892BC1F423
:100C0000239645E050E067E570E0CE010E942007A2
:100C1000892B09F42596C114D10419F0F601D1836A
:100C2000C0831111F6C060E070E080E89FE7FAC071
:100C300043E050E064E570E0CE010E942007892B7C
:100C400059F4C114D10409F4E9C0F2E0EF0EF11C2B
:100C5000F601F182E082E2C020E030E0A901C0E0CC
:100C6000D0E0F70180EDA82EA00E89E08A1530F1C2
:100C7000912F9260B92E812F887012FF04C08111CC
:100C800024C0219622C081112197A5E0B0E00E94E6
:100C90002808DC01CB01880F991FAA1FBB1F9C01EC
:100CA000AD012A0D311D411D511D283989E9380733
:100CB000480789E1580748F0166006C09EEFA91260
:100CC0000AC013FD40C01860B12E8FEFE81AF80A71
:100CD00000811B2DC6CF802F8F7D8534A1F58081AB
:100CE0008D3211F4106106C08B3221F0319661E033
:100CF00070E004C08181329662E070E080538A30F7
:100D000018F0E61BF70B1FC060E070E060389CE055
:100D100079075CF4DB01AA0FBB1FAA0FBB1F6A0F88
:100D20007B1F660F771F680F711D3196DF011197CA
:100D30008C9180538A3050F314FF03C071956195F4
:100D40007109C60FD71F11FF08C0C114D10429F0C3
:100D5000CF010197F60191838083CA01B9010E94F6
:100D6000E807212F2370233019F04B015C0106C0E6
:100D70004B015C01B7FAB094B7F8B09420E030E0D2
:100D8000A901C501B4010E942702882309F43EC0CD
:100D9000D7FF06C0D195C195D10903E710E002C085
:100DA0000BE810E06801F8E1CF1AD10890E2E92ED3
:100DB000F12CCE15DF0574F0F801259135914591A0
:100DC0005491C501B4010E9447034B015C01CE1947
:100DD000DF09EFCF04501109F594E7940C151D05B8
:100DE00041F78A2D880F8B2D881F8F3F49F020E017
:100DF00030E0A901C501B4010E942702811106C09B
:100E000082E290E090934C0180934B01C501B401C4
:100E100009C060E070E080E89FEF04C060E070E02F
:100E200080EC9FE7CDB7DEB7ECE00C94550891114C
:100E30000C942508803219F089508550C8F7089520
:100E4000FB01DC014150504088F08D9181341CF051
:100E50008B350CF4805E659161341CF06B350CF4BD
:100E6000605E861B611171F3990B0895881BFCCF9E
:100E7000FC010590615070400110D8F78095909565
:100E80008E0F9F1F0895FC0161507040019001106A
:100E9000D8F7809590958E0F9F1F08950F931F93FD
:100EA000CF93DF93FB01238121FD03C08FEF9FEFE1
:100EB0002CC022FF16C046815781248135814217FC
:100EC000530744F4A081B1819D012F5F3F4F3183CF
:100ED00020838C93268137812F5F3F4F3783268372
:100EE00014C08B01EC01FB010084F185E02D099514
:100EF000892BE1F6D80116968D919C911797019652
:100F000017969C938E931697CE01DF91CF911F91E8
:100F10000F910895FA01AA27283051F1203181F16B
:100F2000E8946F936E7F6E5F7F4F8F4F9F4FAF4FF1
:100F3000B1E03ED0B4E03CD0670F781F891F9A1F04
:100F4000A11D680F791F8A1F911DA11D6A0F711DB8
:100F5000811D911DA11D20D009F468943F912AE0C4
:100F6000269F11243019305D3193DEF6CF010895AC
:100F7000462F4770405D4193B3E00FD0C9F7F6CFDD
:100F8000462F4F70405D4A3318F0495D31FD4052A5
:100F9000419302D0A9F7EACFB4E0A695979587953B
:100FA00077956795BA95C9F700976105710508951A
:100FB0009B01AC010A2E06945795479537952795C6
:100FC000BA95C9F7620F731F841F951FA01D08955E
:100FD000E89409C097FB3EF49095809570956195D3
:100FE0007F4F8F4F9F4F9923A9F0F92F96E9BB2789
:100FF0009395F695879577956795B795F111F8CF05
:10100000FAF4BB0F11F460FF1BC06F5F7F4F8F4F6F
:101010009F4F16C0882311F096E911C0772321F065
:101020009EE8872F762F05C0662371F096E8862FFD
:1010300070E060E02AF09A95660F771F881FDAF754
:10104000880F9695879597F9089599278827089589
:101050000E946A08A59F900DB49F900DA49F800DDB
:10106000911D112408952F923F924F925F926F929B
:101070007F928F929F92AF92BF92CF92DF92EF9228
:10108000FF920F931F93CF93DF93CDB7DEB7CA1BA9
:10109000DB0B0FB6F894DEBF0FBECDBF09942A88D4
:1010A000398848885F846E847D848C849B84AA847C
:1010B000B984C884DF80EE80FD800C811B81AA8109
:1010C000B981CE0FD11D0FB6F894DEBF0FBECDBFD4
:1010D000ED010895A29FB001B39FC001A39F700DC1
:1010E000811D1124911DB29F700D811D1124911D30
:0610F0000895F894FFCF03
:1010F600620000000002000000006700000000001F
:10110600616E676C65000D0A4745543A2025640DEB
:101116000A000D0A556E6B6E6F776E20636F6D6DEC
:10112600616E640D0A000D0A4552524F520D0A00B7
:0611360025670D0A000010
:00000001FF
