:100000000C942A000C9447000C9447000C94470071
:100010000C9449000C9447000C9447000C94470042
:100020000C9447000C9447000C9447000C94470034
:100030000C9447000C9447000C9447000C94470024
:100040000C9447000C9447000C9447000C94470014
:100050000C94470011241FBECFE5D8E0DEBFCDBF12
:1000600010E0A0E6B0E0E8E8F1E002C005900D92F3
:10007000A236B107D9F720E0A2E6B0E001C01D9298
:10008000A336B207E1F70E9471000C94C2000C94F1
:1000900000001F920F920FB60F9211242F938F938F
:1000A0009F93909160008FEF890F8E3F30F02091E9
:1000B000620081E08227809362009CBF9091620081
:1000C00080916000992311F0815001C08F5F80936F
:1000D00060009F918F912F910F900FBE0F901F90F6
:1000E00018958D9ABB9A8FB582608FBD8EB5886149
:1000F0008EBD8FB580688FBD8EB582608EBD8FE35B
:100100009CE997BD86BD83B7886483BF83B780634E
:1001100083BF83B7826083BF1CBE85B5886085BD01
:1001200087E085BD89B7806889BF89EF83BD7894F2
:1001300087EE93E09BBD8ABD2FEF87EA91E62150C1
:1001400080409040E1F700C0000087EE93E09BBD47
:100150008ABDEFE9FFE03197F1F700C0000001969A
:100160008738F3E19F0799F79BBD8ABDEFE9FFE070
:100170003197F1F700C000000197873EF3E09F0739
:0801800099F7E3CFF894FFCFDB
:02018800010074
:00000001FF
