:100000000C942A000C943C000C943C000C943C0092
:100010000C943C000C943C000C943C000C943C0070
:100020000C943C000C943E000C943C000C943C005E
:100030000C943C000C943C000C943C000C943C0050
:100040000C943C000C943C000C943C000C943C0040
:100050000C943C0011241FBECFE5D8E0DEBFCDBF1D
:1000600020E0A0E6B0E001C01D92A136B207E1F7A2
:100070000E9458000C9470000C9400001F920F9284
:100080000FB60F9211248F939F9388E59EE99DBD33
:100090008CBD869906C09091600081E0892780938D
:1000A00060009F918F910F900FBE0F901F90189539
:1000B00081E084BB85BB11BA80E482BB1FBC88E5AC
:1000C0009EE99DBD8CBD84E089BF83E08EBD7894A0
:1000D00080916000882311F0A898FACFA89AF8CFF1
:0400E000F894FFCFC2
:00000001FF
