:100000000C94C9000C94E6000C94E6000C94E600F5
:100010000C94E6000C94E6000C94E6000C94E800C6
:100020000C94E6000C94E6000C94E6000C94E600B8
:100030000C94E6000C9407010C9443010C94E60028
:100040000C94E6000C94E6000C94E6000C94E60098
:100050000C94E6006E616E00696E66004E414E497A
:100060004E495459494E46CDCCCC3D0AD7233C1776
:10007000B7D13877CC2B329595E6241FB14F0A00C3
:100080000020410000C84200401C4620BCBE4CCAB3
:100090001B0E5AAEC59D7400407A10F35A00A07230
:1000A0004E18090010A5D4E80000E87648170000B3
:1000B000E40B54020000CA9A3B000000E1F5050081
:1000C0000080969800000040420F000000A08601CA
:1000D000000000102700000000E80300000000649A
:1000E00000000000000A0000000000010000000005
:1000F000002C76D888DC674F0823DFC1DFAE59E1DA
:10010000B1B796E5E3E453C63AE651997696E8E648
:10011000C28426EB898C9B62ED407C6FFCEFBC9C1B
:100120009F40F2BAA56FA5F490055A2AF75C936B2D
:100130006CF9676DC11BFCE0E40D47FEF520E6B5E8
:1001400000D0ED902E0300943577050080841E08C2
:100150000000204E0A000000C80C333333330F98E0
:100160006E12831141EF8D2114893BE65516CFFEA7
:10017000E6DB18D1844B381BF77C1D901DA4BBE433
:1001800024203284725E228100C9F124ECA1E53D75
:10019000270011241FBECFE5D8E0DEBFCDBF10E0A1
:1001A000A0E6B0E0ECE1F5E102C005900D92A63CBE
:1001B000B107D9F721E0A6ECB0E001C01D92AF363F
:1001C000B207E1F70E94A6010C948C0A0C9400007F
:1001D0001F920F920FB60F9211248F9383B38F91BA
:1001E0000F900FBE0F901F901895CF93C82F80913E
:1001F000C8008111FCCFCA3019F48DE00E94F500CF
:100200005D9BFECFCCB980E090E0CF9108951F9226
:100210000F920FB60F9211248F939F93EF93FF933A
:100220008CB190916C019F3410F010926C01909100
:10023000C90091111FC08D3011F08A3081F4809176
:100240006C018823B9F0E0916C01F0E0E65EFE4FAE
:10025000108210926C0181E08093C9000BC0E09184
:100260006C01F0E0E65EFE4F808380916C018F5F51
:1002700080936C01FF91EF919F918F910F900FBE32
:100280000F901F9018951F920F920FB60F92112486
:100290008F939F93EF93FF93E0916A01F0916B012D
:1002A0008081882349F0CF01019690936B01809360
:1002B0006A0180818CB903C055981092C800FF91E3
:1002C000EF919F918F910F900FBE0F901F901895F7
:1002D00010BC19B888E98AB986E880BD08952091D4
:1002E000C8002111FCCF21E02093C80090936B013E
:1002F00080936A01559A089587EB90E00C946F0102
:100300009F938F937F936F9381EC90E09F938F9354
:100310008AEC90E09F938F930E9431098DB79EB72E
:1003200008960FB6F8949EBF0FBE8DBF8AEC90E082
:100330000C946F0180E5EAE1F1E0DF011D928A95FE
:10034000E9F710926C011092C900089581E084BB16
:1003500085BBA198A99A0E9468018BE08EBD87EAAF
:1003600091E69BBD8ABD80E189BF789480E790E0EB
:100370000E946F01C0E0D0E08091C9008823E1F3C2
:1003800044E050E068E770E08AE191E00E94DC0818
:10039000892BB1F480E00E947C018DE790E00E94FF
:1003A0006F0183E990E00E946F0187E990E00E946D
:1003B0006F018BE990E00E946F018FE990E043C0EC
:1003C00080911A018B3249F483EA90E00E946F0118
:1003D0006C2F70E06D0F711D0AC08D3269F488EAD0
:1003E00090E00E946F016C2F70E06D1B7109072E69
:1003F000000C880B990B1EC08A3261F48DEA90E0E4
:100400000E946F01DC9FE0011124BE01DD0F880B0B
:10041000990B10C08F32D1F4DD2399F082EB90E07C
:100420000E946F018C2F6D2F0E944706682F70E08D
:1004300080E090E00E94E3050E948001D0E0C0E0EF
:1004400011C089EB90E00E946F0109C060E070E08C
:100450008AE191E00E948A060E94B205D62FC1115E
:1004600001C0CD2F0E949A0187CFA0E1B0E0EBE35D
:10047000F2E00C9453067C011B016A01FC01178217
:100480001682838181FF44C39E012F5F3F4F390154
:10049000F7019381F10193FD859193FF81911F01F4
:1004A000882309F431C3853239F493FD859193FF94
:1004B00081911F01853239F4B70190E00E94F5085F
:1004C00056016501E5CF10E0512C912CFFE1F915A3
:1004D000D8F08B3279F038F4803279F08332A1F49D
:1004E000F92DF0612EC08D3261F0803369F4292D31
:1004F00021602DC0392D3260932E892D8460982E75
:100500002AC0E92DE86015C097FC2DC020ED280F0A
:100510002A3088F496FE06C03AE0139F200D11247D
:10052000122F19C08AE0589E200D1124522EE92D59
:10053000E0629E2E10C08E3231F496FCE5C2F92D99
:10054000F0649F2E08C08C3621F4292D2068922E4D
:1005500002C0883641F4F10193FD859193FF8191AA
:100560001F018111B3CF9BEB980F933020F4992D8D
:100570009061805E07C09BE9980F933008F066C1D8
:10058000992D9F7E96FF16E09F73992E853619F45C
:100590009064992E08C0863621F4392F3068932E46
:1005A00002C01111115097FE07C01C3350F44424AF
:1005B0004394410E27E00BC0183038F027E017E0D5
:1005C00005C027E09CE3492E02C0212F412C560193
:1005D00084E0A80EB11CF601608171818281938153
:1005E000042DA3010E94D8076C01F981FC87F0FF5C
:1005F00002C0F3FF06C091FC06C092FE06C000E2F6
:1006000005C00DE203C00BE201C000E08C858C70D8
:1006100019F001115AC29BC297FE10C04C0CFC8508
:10062000F4FF04C08A81813309F44A94141474F5E8
:1006300028E0241578F588E0482E2CC096FC2AC0C6
:10064000812F90E08C159D059CF03CEFC3163FEF89
:10065000D30674F0892D8068982E0AC0E2E0F0E09D
:10066000EC0FFD1FE10FF11D8081803319F4115053
:100670001111F4CF97FE0EC044244394410E812FF4
:1006800090E0C816D9062CF41C1904C044244394E5
:1006900001C010E097FE06C01C141D0434F4C6010E
:1006A000019605C085E090E002C081E090E0011174
:1006B0000196112331F0212F30E02F5F3F4F820F41
:1006C000931F252D30E08217930714F4581A01C0A8
:1006D000512C892D897049F4552039F0B70180E2F9
:1006E00090E00E94F5085A94F7CF002329F0B70153
:1006F000802F90E00E94F50893FC09C0552039F046
:10070000B70180E390E00E94F5085A94F7CF97FE76
:100710004CC04601D7FE02C0812C912CC60188191D
:100720009909F301E80FF91FFE87ED879601241957
:100730003109388B2F87012F10E011950195110990
:100740003FEF8316930629F4B7018EE290E00E94F2
:10075000F508C814D9044CF08F8598898815990537
:1007600024F4ED85FE85818101C080E3F1E08F1ADC
:1007700091082D853E852F5F3F4F3E872D87801640
:1007800091062CF0B70190E00E94F508D9CFC8146B
:10079000D90441F49A81963320F4953319F43C85B9
:1007A00034FF81E3B70190E04EC08A81813319F0B4
:1007B0009C859F7E9C87B70190E00E94F5081111EF
:1007C00005C094FC18C085E690E017C0B7018EE222
:1007D00090E00E94F5081E5F82E001E0080FF3013F
:1007E000E80FF11D8081B70190E00E94F508802F8D
:1007F0000113F3CFE6CF85E490E0B7010E94F5083E
:10080000D7FC06C0C114D10441F4EC85E4FF05C057
:10081000D194C194D1088DE201C08BE2B70190E080
:100820000E94F50880E32AE0C216D1042CF08F5F05
:10083000FAE0CF1AD108F7CFB70190E00E94F5088F
:10084000B701C601C0960E94F50854C1833631F045
:10085000833779F0833509F056C020C0560132E065
:10086000A30EB11CF6018081898301E010E06301D1
:1008700012C05601F2E0AF0EB11CF601C080D1806B
:1008800096FE03C0612F70E002C06FEF7FEFC601DC
:100890000E94EA088C01F92DFF7714C0560122E06E
:1008A000A20EB11CF601C080D18096FE03C0612F5C
:1008B00070E002C06FEF7FEFC6010E94D1088C018B
:1008C000F92DF0689F2EF3FD1AC0852D90E00817D2
:1008D0001907A8F4B70180E290E00E94F5085A9445
:1008E000F4CFF60197FC859197FE81916F01B701D6
:1008F00090E00E94F50851105A9401501109011519
:10090000110579F7F7C0843611F0893661F5560183
:1009100097FE09C024E0A20EB11CF601608171812E
:10092000828193810AC0F2E0AF0EB11CF6016081B2
:100930007181072E000C880B990BF92DFF769F2EE5
:1009400097FF09C090958095709561957F4F8F4F67
:100950009F4FF0689F2E2AE030E0A3010E945309C8
:10096000C82EC6183FC0092D853721F40F7E2AE016
:1009700030E01DC0097F8F3691F018F4883559F0AA
:10098000C3C0803719F0883711F0BEC0006104FF82
:1009900009C0046007C094FE08C0066006C028E0D5
:1009A00030E005C020E130E002C020E132E0560135
:1009B00007FF09C084E0A80EB11CF60160817181B7
:1009C0008281938108C0F2E0AF0EB11CF601608114
:1009D000718180E090E0A3010E945309C82EC618DF
:1009E0000F77902E96FE0BC0092D0E7FC11650F486
:1009F00094FE0AC092FC08C0092D0E7E05C0DC2CB6
:100A0000092D03C0DC2C01C0D12E04FF0DC0FE0156
:100A1000EC0DF11D8081803311F4097E09C002FFC5
:100A200006C0D394D39404C0802F867809F0D39461
:100A300003FD11C000FF06C01C2DD51480F4150D58
:100A40001D190DC0D51458F4B70180E290E00E9442
:100A5000F508D394F7CFD51410F45D1801C0512CCC
:100A600004FF10C0B70180E390E00E94F50802FF88
:100A700017C001FD03C088E790E002C088E590E060
:100A8000B7010CC0802F867859F001FF02C08BE2BD
:100A900001C080E207FD8DE2B70190E00E94F508F9
:100AA000C11638F4B70180E390E00E94F5081150B8
:100AB000F7CFCA94F301EC0DF11D8081B70190E0EE
:100AC0000E94F508C110F5CF15C0F4E0F51560F5EA
:100AD00084E0581A93FE1FC0011127C02C8523FF04
:100AE0002AC004E510E0392D3071932EF80184916D
:100AF000811124C0552009F4E4CCB70180E290E0D4
:100B00000E94F5085A94F6CFF7018681978126C096
:100B10008FEF9FEF23C0B70180E290E00E94F508BD
:100B20005A945110F8CFD8CF512CB701802F90E0B4
:100B30000E94F508D3CF08E510E0D5CF9110805280
:100B4000B70190E00E94F5080F5F1F4FCFCF23E061
:100B5000251510F483E0BDCF512CC0CF6096E2E1A3
:100B60000C946F060E94260688F09F5798F0B92FC4
:100B70009927B751B0F0E1F0660F771F881F991FD2
:100B80001AF0BA95C9F714C0B13091F00E9440062E
:100B9000B1E008950C944006672F782F8827B85F3E
:100BA00039F0B93FCCF3869577956795B395D9F72A
:100BB0003EF490958095709561957F4F8F4F9F4F34
:100BC0000895E89409C097FB3EF490958095709540
:100BD00061957F4F8F4F9F4F9923A9F0F92F96E989
:100BE000BB279395F695879577956795B795F111FE
:100BF000F8CFFAF4BB0F11F460FF1BC06F5F7F4F9B
:100C00008F4F9F4F16C0882311F096E911C07723AC
:100C100021F09EE8872F762F05C0662371F096E8B5
:100C2000862F70E060E02AF09A95660F771F881F84
:100C3000DAF7880F9695879597F9089557FD90589C
:100C4000440F551F59F05F3F71F04795880F97FB90
:100C5000991F61F09F3F79F087950895121613064A
:100C60001406551FF2CF4695F1DF08C01616170679
:100C70001806991FF1CF86957105610508940895AE
:100C8000E894BB2766277727CB0197F90895991B2E
:100C900079E004C0991F961708F0961B881F7A9573
:100CA000C9F7809508952F923F924F925F926F926D
:100CB0007F928F929F92AF92BF92CF92DF92EF92EC
:100CC000FF920F931F93CF93DF93CDB7DEB7CA1B6D
:100CD000DB0B0FB6F894DEBF0FBECDBF09942A8898
:100CE000398848885F846E847D848C849B84AA8440
:100CF000B984C884DF80EE80FD800C811B81AA81CD
:100D0000B981CE0FD11D0FB6F894DEBF0FBECDBF97
:100D1000ED010895A0E0B0E0E0E9F6E00C9459069A
:100D2000EC016B016115710519F0FB019183808362
:100D30007E01FFEFEF1AFF0A0881802F90E00E94EA
:100D4000B008892B11F0E701F3CF0D3239F47E01A1
:100D500082E0E80EF11C098111E008C00B3229F491
:100D60007E0192E0E90EF11C098110E0E701219774
:100D700043E050E064E670E0CE010E94B908892BA0
:100D8000C1F4239645E050E06FE570E0CE010E948B
:100D9000B908892B09F42596C114D10419F0F6017C
:100DA000D183C0831111F6C060E070E080E89FE756
:100DB000FAC043E050E06CE570E0CE010E94B90853
:100DC000892B59F4C114D10409F4E9C0F2E0EF0E03
:100DD000F11CF601F182E082E2C020E030E0A901DE
:100DE000C0E0D0E0F70180EDA82EA00E89E08A15C2
:100DF00030F1912F9260B92E812F887012FF04C0BC
:100E0000811124C0219622C081112197A5E0B0E074
:100E10000E94720ADC01CB01880F991FAA1FBB1F19
:100E20009C01AD012A0D311D411D511D283989E953
:100E30003807480789E1580748F0166006C09EEF5A
:100E4000A9120AC013FD40C01860B12E8FEFE81A36
:100E5000F80A00811B2DC6CF802F8F7D8534A1F528
:100E600080818D3211F4106106C08B3221F03196F1
:100E700061E070E004C08181329662E070E08053EE
:100E80008A3018F0E61BF70B1FC060E070E0603896
:100E90009CE079075CF4DB01AA0FBB1FAA0FBB1F04
:100EA0006A0F7B1F660F771F680F711D3196DF0178
:100EB00011978C9180538A3050F314FF03C07195C1
:100EC00061957109C60FD71F11FF08C0C114D10465
:100ED00029F0CF010197F60191838083CA01B901FE
:100EE0000E94E105212F2370233019F04B015C0192
:100EF00006C04B015C01B7FAB094B7F8B09420E09B
:100F000030E0A901C501B4010E94B109882309F4A8
:100F10003EC0D7FF06C0D195C195D1090BE710E0BF
:100F200002C003E910E06801F8E1CF1AD10890E2AD
:100F3000E92EF12CCE15DF0574F0F80125913591DD
:100F400045915491C501B4010E94DA094B015C013D
:100F5000CE19DF09EFCF04501109F594E7940C1571
:100F60001D0541F78A2D880F8B2D881F8F3F49F073
:100F700020E030E0A901C501B4010E94B10981114E
:100F800006C082E290E090936E0180936D01C501EE
:100F9000B40109C060E070E080E89FEF04C060E049
:100FA00070E080EC9FE7CDB7DEB7ECE00C947506FF
:100FB000283008F027E03327DA01990F311D87FD2B
:100FC000916000966105710539F432602E5F3D93A2
:100FD00030E32A95E1F708959F3F30F0803871059E
:100FE000610509F03C5F3C5F3D93913008F08068FB
:100FF000911DDF93CF931F930F93FF92EF92192FC1
:10100000987F9695E92F96959695E90FFF27EF50D3
:10101000FF4F99273327EE24FF24A701E70105900E
:101020000894079428F4360FE71EF81E491F511D37
:10103000660F771F881F991F0694A1F705900794E4
:1010400028F4E70EF81E491F561FC11D770F881F91
:10105000991F661F0694A1F70590079428F4F80ECF
:10106000491F561FC71FD11D880F991F661F771F65
:101070000694A1F70590079420F4490F561FC71F47
:10108000D81F990F661F771F881F0694A9F78491B0
:101090001095177041F0D695C79557954795F794D9
:1010A000E7941A95C1F7E7E9F0E068941590159177
:1010B00035916591959105907FE27395E118F10A5C
:1010C000430B560BC90BD009C0F7E10CF11E431FAF
:1010D000561FC91FD01D7EF4703311F48A95E6CFD8
:1010E000E894015030F0080F0AF40027021708F4C2
:1010F000202F2395022F7A3328F079E37D932A95C8
:10110000E9F710C07D932A9589F60694979567951F
:10111000379517951794E118F10A430B560BC90B35
:10112000D00998F023957E9173957A3308F070E397
:101130007C932013B8F77E9170617D9330F0839596
:1011400071E37D9370E32A95E1F71124EF90FF900E
:101150000F911F91CF91DF91992787FD9095089569
:1011600091110C94470A803219F089508550C8F7C4
:101170000895FB01DC014150504088F08D9181348D
:101180001CF08B350CF4805E659161341CF06B357E
:101190000CF4605E861B611171F3990B0895881B36
:1011A000FCCFFC010590615070400110D8F780958C
:1011B00090958E0F9F1F0895FB01DC014150504018
:1011C00030F08D910190801919F40020B9F7881B37
:1011D000990B0895FC016150704001900110D8F7FF
:1011E000809590958E0F9F1F08950F931F93CF9317
:1011F000DF93FB01238121FD03C08FEF9FEF2CC004
:1012000022FF16C04681578124813581421753073A
:1012100044F4A081B1819D012F5F3F4F3183208332
:101220008C93268137812F5F3F4F3783268314C0ED
:101230008B01EC01FB010084F185E02D0995892BE0
:10124000E1F6D80116968D919C9117970196179605
:101250009C938E931697CE01DF91CF911F910F91A2
:101260000895AEE0B0E0E7E3F9E00C9461060D8983
:101270001E8986E08C831A8309838FEF9FE79E8304
:101280008D83AE01475E5F4F6F89788DCE010196E9
:101290000E943502EF81F885E00FF11F10822E9633
:1012A000E4E00C947D06FA01AA27283051F12031A0
:1012B00081F1E8946F936E7F6E5F7F4F8F4F9F4FEA
:1012C000AF4FB1E03ED0B4E03CD0670F781F891F2C
:1012D0009A1FA11D680F791F8A1F911DA11D6A0FFA
:1012E000711D811D911DA11D20D009F468943F91AD
:1012F0002AE0269F11243019305D3193DEF6CF01AC
:101300000895462F4770405D4193B3E00FD0C9F771
:10131000F6CF462F4F70405D4A3318F0495D31FDDE
:101320004052419302D0A9F7EACFB4E0A695979531
:10133000879577956795BA95C9F700976105710507
:1013400008959B01AC010A2E069457954795379551
:101350002795BA95C9F7620F731F841F951FA01DAB
:1013600008950E94B60908F481E00895990F0008D5
:10137000550FAA0BE0E8FEEF16161706E807F90767
:10138000C0F012161306E407F50798F0621B730B02
:10139000840B950B39F40A2661F0232B242B252B83
:1013A00021F408950A2609F4A140A6958FEF811D26
:1013B000811D08950E94ED090C94610A0E94530A50
:1013C00038F00E945A0A20F0952311F00C944A0A32
:1013D0000C94500A11240C9441060E941E0670F3CE
:1013E000959FC1F3950F50E0551F629FF001729FCA
:1013F000BB27F00DB11D639FAA27F00DB11DAA1FD9
:10140000649F6627B00DA11D661F829F2227B00D25
:10141000A11D621F739FB00DA11D621F839FA00DB0
:10142000611D221F749F3327A00D611D231F849F00
:10143000600D211D822F762F6A2F11249F57504057
:101440009AF0F1F088234AF0EE0FFF1FBB1F661FD2
:10145000771F881F91505040A9F79E3F510580F09B
:101460000C944A0A0C9441065F3FE4F3983ED4F38F
:10147000869577956795B795F795E7959F5FC1F73F
:10148000FE2B880F911D9695879597F908959927BA
:101490008827089597F99F6780E870E060E00895D5
:1014A0009FEF80EC089500240A941616170618067C
:1014B0000906089500240A94121613061406050658
:1014C0000895092E0394000C11F4882352F0BB0FE9
:1014D00040F4BF2B11F460FF04C06F5F7F4F8F4F4C
:1014E0009F4F08950E947D0AA59F900DB49F900D77
:1014F000A49F800D911D11240895A29FB001B39F58
:10150000C001A39F700D811D1124911DB29F700D0C
:0C151000811D1124911D0895F894FFCF57
:10151C0062000000000200000000F5000000000066
:10152C00576974616A0D0A0068656C7000417661D8
:10153C00696C61626C6520636F6D6D616E64733A8A
:10154C000D0A002B0D0A002D0D0A002A0D0A002F82
:10155C000D0A00782B793D00782D793D00782A7999
:10156C003D00782F793D000D0A4552524F520D0A1D
:06157C000025670D0A00C6
:00000001FF
