:100000000C942A000C9434000C9434000C943400AA
:100010000C9434000C9434000C9434000C94340090
:100020000C9434000C9434000C9434000C94340080
:100030000C9434000C9434000C9434000C94340070
:100040000C9434000C9434000C9434000C94340060
:100050000C94340011241FBECFE5D8E0DEBFCDBF25
:100060000E9436000C9485000C9400008D9A8FB588
:1000700082608FBD8EB588618EBD8FB580688FBD63
:100080008EB582608EBD8FE39CE997BD86BD87EB00
:100090009BE09BBD8ABD2FEF67EA71E6215060406F
:1000A0007040E1F700C0000047E057E027E630E18C
:1000B0005BBD4ABDEFEF63ED70E3E150604070401F
:1000C000E1F700C000009BBD8ABDEFEF63ED70E378
:1000D000E15060407040E1F700C000003BBD2ABD28
:1000E000EFEF63ED70E3E15060407040E1F700C076
:1000F00000009BBD8ABDEFEF63ED70E3E15060400F
:0E0100007040E1F700C00000D3CFF894FFCFAD
:00000001FF
