:100000000C942A000C943E000C943C000C943C0090
:100010000C943C000C943C000C943C000C943C0070
:100020000C943C000C943C000C943C000C943C0060
:100030000C943C000C943C000C943C000C943C0050
:100040000C943C000C943C000C943C000C943C0040
:100050000C943C0011241FBECFE5D8E0DEBFCDBF1D
:1000600020E0A0E6B0E001C01D92A136B207E1F7A2
:100070000E944F000C9460000C9400001F920F929D
:100080000FB60F9211248F93809160008F5F809341
:1000900060008F910F900FBE0F901F9018958FEFFB
:1000A00084BB85BB8A98929A85B7826085BF8BB7DF
:1000B00080648BBF789480916000809585BBFBCF76
:0400C000F894FFCFE2
:00000001FF
