:100000000C942A000C9447000C9447000C94470071
:100010000C9447000C9447000C9447000C94490042
:100020000C9447000C9447000C9468000C94470013
:100030000C9447000C9447000C9447000C94470024
:100040000C9447000C9447000C9447000C94470014
:100050000C94470011241FBECFE5D8E0DEBFCDBF12
:1000600010E0A0E6B0E0E4E9F2E002C005900D92F5
:10007000AC36B107D9F720E0ACE6B0E001C01D9284
:10008000A137B207E1F70E9404010C9448010C94D7
:1000900000001F920F920FB60F9211248F939F931F
:1000A0009E9906C08091600090916100019605C004
:1000B000809160009091610001979093610080931E
:1000C00060009F918F910F900FBE0F901F90189519
:1000D0001F920F920FB60F9211242F938F939F931D
:1000E00085B38F6085BB80916C00813059F038F00A
:1000F000823059F0833061F480916D0008C08091A6
:100100006E0005C080916F0002C08091700082BBBC
:1001100025B381E090E000906C0002C0880F991F29
:100120000A94E2F78095822385BB80916C008F5FF3
:10013000837080936C009F918F912F910F900FBED1
:100140000F901F9018950F931F93CF93DF93CDB708
:10015000DEB72A970FB6F894DEBF0FBECDBF8C0175
:100160008AE0E2E6F0E0DE01119601900D928A95B8
:10017000E1F72AE030E0C801B9010E943401E1E072
:10018000F0E0EC0FFD1FE80FF91F808180936E00F7
:10019000CB01B9010E943401E1E0F0E0EC0FFD1F5A
:1001A000E80FF91F808180936F00C80164E670E05A
:1001B0000E943401CB01B9010E943401E1E0F0E07A
:1001C000EC0FFD1FE80FF91F808180937000C801BC
:1001D00068EE73E00E943401CB01B9010E94340142
:1001E000E1E0F0E0EC0FFD1FE80FF91F8081809344
:1001F0006D002A960FB6F894DEBF0FBECDBFDF911B
:10020000CF911F910F9108958AB383608ABB81E0DB
:100210008BBB8FE084BB85BBA698AE9A8FEF81BB6A
:1002200082BB83B78C6083BF9CE79CBF8EB58C601C
:100230008EBD23E234EF3BBD2ABD89B7826189BF01
:100240009CBF789480916000909161000E94A3000F
:100250008091600090916100892BA1F7D898D99A7C
:100260008EB58B7F8EBDEECFAA1BBB1B51E107C0A5
:10027000AA1FBB1FA617B70710F0A61BB70B881F36
:10028000991F5A95A9F780959095BC01CD010895C5
:04029000F894FFCF10
:0C0294003C00C0F9A4B0999282F8809060
:00000001FF
