:100000000C942A000C9434000C9434000C943400AA
:100010000C9434000C9434000C9434000C94340090
:100020000C9434000C9434000C9434000C94340080
:100030000C9434000C9434000C9434000C94340070
:100040000C9434000C9434000C9434000C94340060
:100050000C94340011241FBECFE5D8E0DEBFCDBF25
:100060000E9445000C9458000C94000020E030E001
:100070002817390749F0EFE9FFE03197F1F700C0A1
:1000800000002F5F3F4FF4CF089580EC84BB85BB09
:100090008898909AC0E4809902C0AF9801C0AF9A46
:1000A00085B38C2785BB84EF91E00E943600F3CFA7
:0400B000F894FFCFF2
:00000001FF
