:100000000C942A000C9434000C9434000C943400AA
:100010000C9434000C9434000C9434000C94340090
:100020000C9434000C9434000C9434000C94340080
:100030000C9434000C9434000C9434000C94340070
:100040000C9434000C9434000C9434000C94340060
:100050000C94340011241FBECFE5D8E0DEBFCDBF25
:100060000E9445000C9499000C94000020E030E0C0
:100070002817390749F0EFE9FFE03197F1F700C0A1
:1000800000002F5F3F4FF4CF089584B38F6084BB8F
:1000900081B3807F81BB8FE082BB05E010E0D0E0C0
:1000A00080E0C0E0FF24F394CC24C394D12C809949
:1000B00007C08F25EFE3FCE93197F1F700C000009E
:1000C000819907C0DF25EFE3FCE93197F1F700C024
:1000D000000082990BC00430110510F00150110985
:1000E000EFE3FCE93197F1F700C0000083990BC002
:1000F0000333110510F40F5F1F4FEFE3FCE9319755
:10010000F1F700C00000882391F0C6010C2E01C059
:10011000880F0A94EAF785BBDD2311F0CF5F01C099
:10012000C150C370C8010E94360081E0C0CF15BA2B
:06013000BECFF894FFCFE2
:00000001FF
