:100000000C942A000C9447000C9447000C94470071
:100010000C9447000C9447000C9447000C94470044
:100020000C9447000C9447000C9447000C94470034
:100030000C9447000C9449000C9447000C94580011
:100040000C9447000C9447000C9447000C94470014
:100050000C94470011241FBECFE5D8E0DEBFCDBF12
:1000600010E0A0E6B0E0E4E3F1E002C005900D92FC
:10007000AE36B107D9F720E0AEE6B0E001C01D9280
:10008000A137B207E1F70E9488000C9498000C9405
:1000900000001F920F920FB60F9211248F938CB114
:1000A00080936E008F910F900FBE0F901F90189548
:1000B0001F920F920FB60F9211248F939F93EF937D
:1000C000FF93E0916F00F09170008081882341F0F0
:1000D000CF0101969093700080936F0080818CB95E
:1000E000FF91EF919F918F910F900FBE0F901F90F6
:1000F000189510BC19B888ED8AB986E880BD0895B6
:10010000FC0121912CB9F0937000E0936F000895E9
:100110000E947900789480E690E00E9480008091AF
:100120006E008837E1F710926E0088E690E0F5CF18
:04013000F894FFCF71
:0E01340048656C6C6F0D0A004F4B0D0A000001
:00000001FF
